{
  "address": "0x2FD41659678fC38D0f07b046091b98FBB018F0DC",
  "abi": [
    {
      "inputs": [
        {
          "internalType": "address",
          "name": "_eggs",
          "type": "address"
        }
      ],
      "stateMutability": "nonpayable",
      "type": "constructor"
    },
    {
      "anonymous": false,
      "inputs": [],
      "name": "AntCreated",
      "type": "event"
    },
    {
      "anonymous": false,
      "inputs": [],
      "name": "AntSold",
      "type": "event"
    },
    {
      "anonymous": false,
      "inputs": [
        {
          "indexed": true,
          "internalType": "address",
          "name": "owner",
          "type": "address"
        },
        {
          "indexed": true,
          "internalType": "address",
          "name": "approved",
          "type": "address"
        },
        {
          "indexed": true,
          "internalType": "uint256",
          "name": "tokenId",
          "type": "uint256"
        }
      ],
      "name": "Approval",
      "type": "event"
    },
    {
      "anonymous": false,
      "inputs": [
        {
          "indexed": true,
          "internalType": "address",
          "name": "owner",
          "type": "address"
        },
        {
          "indexed": true,
          "internalType": "address",
          "name": "operator",
          "type": "address"
        },
        {
          "indexed": false,
          "internalType": "bool",
          "name": "approved",
          "type": "bool"
        }
      ],
      "name": "ApprovalForAll",
      "type": "event"
    },
    {
      "anonymous": false,
      "inputs": [],
      "name": "EggCreated",
      "type": "event"
    },
    {
      "anonymous": false,
      "inputs": [
        {
          "indexed": false,
          "internalType": "address",
          "name": "",
          "type": "address"
        },
        {
          "indexed": false,
          "internalType": "uint256",
          "name": "",
          "type": "uint256"
        }
      ],
      "name": "EggsBought",
      "type": "event"
    },
    {
      "anonymous": false,
      "inputs": [
        {
          "indexed": true,
          "internalType": "address",
          "name": "from",
          "type": "address"
        },
        {
          "indexed": true,
          "internalType": "address",
          "name": "to",
          "type": "address"
        },
        {
          "indexed": true,
          "internalType": "uint256",
          "name": "tokenId",
          "type": "uint256"
        }
      ],
      "name": "Transfer",
      "type": "event"
    },
    {
      "inputs": [
        {
          "internalType": "uint256",
          "name": "",
          "type": "uint256"
        }
      ],
      "name": "allAntsIds",
      "outputs": [
        {
          "internalType": "uint256",
          "name": "",
          "type": "uint256"
        }
      ],
      "stateMutability": "view",
      "type": "function"
    },
    {
      "inputs": [],
      "name": "antPrice",
      "outputs": [
        {
          "internalType": "uint256",
          "name": "",
          "type": "uint256"
        }
      ],
      "stateMutability": "view",
      "type": "function"
    },
    {
      "inputs": [
        {
          "internalType": "uint256",
          "name": "",
          "type": "uint256"
        }
      ],
      "name": "antToOwner",
      "outputs": [
        {
          "internalType": "address",
          "name": "",
          "type": "address"
        }
      ],
      "stateMutability": "view",
      "type": "function"
    },
    {
      "inputs": [],
      "name": "antsCreated",
      "outputs": [
        {
          "internalType": "uint256",
          "name": "",
          "type": "uint256"
        }
      ],
      "stateMutability": "view",
      "type": "function"
    },
    {
      "inputs": [
        {
          "internalType": "address",
          "name": "to",
          "type": "address"
        },
        {
          "internalType": "uint256",
          "name": "tokenId",
          "type": "uint256"
        }
      ],
      "name": "approve",
      "outputs": [],
      "stateMutability": "nonpayable",
      "type": "function"
    },
    {
      "inputs": [
        {
          "internalType": "address",
          "name": "owner",
          "type": "address"
        }
      ],
      "name": "balanceOf",
      "outputs": [
        {
          "internalType": "uint256",
          "name": "",
          "type": "uint256"
        }
      ],
      "stateMutability": "view",
      "type": "function"
    },
    {
      "inputs": [
        {
          "internalType": "uint256",
          "name": "_amount",
          "type": "uint256"
        }
      ],
      "name": "buyEggs",
      "outputs": [],
      "stateMutability": "payable",
      "type": "function"
    },
    {
      "inputs": [
        {
          "internalType": "uint256",
          "name": "_newPrice",
          "type": "uint256"
        }
      ],
      "name": "changeEggPrice",
      "outputs": [],
      "stateMutability": "nonpayable",
      "type": "function"
    },
    {
      "inputs": [],
      "name": "createAnt",
      "outputs": [],
      "stateMutability": "nonpayable",
      "type": "function"
    },
    {
      "inputs": [
        {
          "internalType": "uint256",
          "name": "_antId",
          "type": "uint256"
        }
      ],
      "name": "createEgg",
      "outputs": [],
      "stateMutability": "nonpayable",
      "type": "function"
    },
    {
      "inputs": [],
      "name": "eggs",
      "outputs": [
        {
          "internalType": "contract IEgg",
          "name": "",
          "type": "address"
        }
      ],
      "stateMutability": "view",
      "type": "function"
    },
    {
      "inputs": [
        {
          "internalType": "uint256",
          "name": "_antId",
          "type": "uint256"
        }
      ],
      "name": "expiryTime",
      "outputs": [
        {
          "internalType": "uint256",
          "name": "",
          "type": "uint256"
        }
      ],
      "stateMutability": "view",
      "type": "function"
    },
    {
      "inputs": [],
      "name": "getAntsCreated",
      "outputs": [
        {
          "internalType": "uint256",
          "name": "",
          "type": "uint256"
        }
      ],
      "stateMutability": "view",
      "type": "function"
    },
    {
      "inputs": [
        {
          "internalType": "uint256",
          "name": "tokenId",
          "type": "uint256"
        }
      ],
      "name": "getApproved",
      "outputs": [
        {
          "internalType": "address",
          "name": "",
          "type": "address"
        }
      ],
      "stateMutability": "view",
      "type": "function"
    },
    {
      "inputs": [],
      "name": "getContractBalance",
      "outputs": [
        {
          "internalType": "uint256",
          "name": "",
          "type": "uint256"
        }
      ],
      "stateMutability": "view",
      "type": "function"
    },
    {
      "inputs": [
        {
          "internalType": "address",
          "name": "owner",
          "type": "address"
        },
        {
          "internalType": "address",
          "name": "operator",
          "type": "address"
        }
      ],
      "name": "isApprovedForAll",
      "outputs": [
        {
          "internalType": "bool",
          "name": "",
          "type": "bool"
        }
      ],
      "stateMutability": "view",
      "type": "function"
    },
    {
      "inputs": [],
      "name": "locked",
      "outputs": [
        {
          "internalType": "bool",
          "name": "",
          "type": "bool"
        }
      ],
      "stateMutability": "view",
      "type": "function"
    },
    {
      "inputs": [],
      "name": "name",
      "outputs": [
        {
          "internalType": "string",
          "name": "",
          "type": "string"
        }
      ],
      "stateMutability": "view",
      "type": "function"
    },
    {
      "inputs": [],
      "name": "notLocked",
      "outputs": [
        {
          "internalType": "bool",
          "name": "",
          "type": "bool"
        }
      ],
      "stateMutability": "view",
      "type": "function"
    },
    {
      "inputs": [
        {
          "internalType": "uint256",
          "name": "tokenId",
          "type": "uint256"
        }
      ],
      "name": "ownerOf",
      "outputs": [
        {
          "internalType": "address",
          "name": "",
          "type": "address"
        }
      ],
      "stateMutability": "view",
      "type": "function"
    },
    {
      "inputs": [
        {
          "internalType": "address",
          "name": "from",
          "type": "address"
        },
        {
          "internalType": "address",
          "name": "to",
          "type": "address"
        },
        {
          "internalType": "uint256",
          "name": "tokenId",
          "type": "uint256"
        }
      ],
      "name": "safeTransferFrom",
      "outputs": [],
      "stateMutability": "nonpayable",
      "type": "function"
    },
    {
      "inputs": [
        {
          "internalType": "address",
          "name": "from",
          "type": "address"
        },
        {
          "internalType": "address",
          "name": "to",
          "type": "address"
        },
        {
          "internalType": "uint256",
          "name": "tokenId",
          "type": "uint256"
        },
        {
          "internalType": "bytes",
          "name": "_data",
          "type": "bytes"
        }
      ],
      "name": "safeTransferFrom",
      "outputs": [],
      "stateMutability": "nonpayable",
      "type": "function"
    },
    {
      "inputs": [
        {
          "internalType": "uint256",
          "name": "_antId",
          "type": "uint256"
        }
      ],
      "name": "sellAnt",
      "outputs": [],
      "stateMutability": "nonpayable",
      "type": "function"
    },
    {
      "inputs": [
        {
          "internalType": "address",
          "name": "operator",
          "type": "address"
        },
        {
          "internalType": "bool",
          "name": "approved",
          "type": "bool"
        }
      ],
      "name": "setApprovalForAll",
      "outputs": [],
      "stateMutability": "nonpayable",
      "type": "function"
    },
    {
      "inputs": [
        {
          "internalType": "bytes4",
          "name": "interfaceId",
          "type": "bytes4"
        }
      ],
      "name": "supportsInterface",
      "outputs": [
        {
          "internalType": "bool",
          "name": "",
          "type": "bool"
        }
      ],
      "stateMutability": "view",
      "type": "function"
    },
    {
      "inputs": [],
      "name": "symbol",
      "outputs": [
        {
          "internalType": "string",
          "name": "",
          "type": "string"
        }
      ],
      "stateMutability": "view",
      "type": "function"
    },
    {
      "inputs": [
        {
          "internalType": "uint256",
          "name": "tokenId",
          "type": "uint256"
        }
      ],
      "name": "tokenURI",
      "outputs": [
        {
          "internalType": "string",
          "name": "",
          "type": "string"
        }
      ],
      "stateMutability": "view",
      "type": "function"
    },
    {
      "inputs": [
        {
          "internalType": "address",
          "name": "from",
          "type": "address"
        },
        {
          "internalType": "address",
          "name": "to",
          "type": "address"
        },
        {
          "internalType": "uint256",
          "name": "tokenId",
          "type": "uint256"
        }
      ],
      "name": "transferFrom",
      "outputs": [],
      "stateMutability": "nonpayable",
      "type": "function"
    }
  ],
  "transactionHash": "0x4fd3acb94ff50e5ec505a99c592273316bc0f27f5e6e072c504867809b1cbe0e",
  "args": [
    "0xb15473106aE57241E12D2bbCb8bE5596beCAb99D"
  ],
  "solcInputHash": "c3cbfae441204402aa559faedb766b08",
  "bytecode": "0x60a06040526008805461ffff19169055600060095566016bcc41e90000600a55610258600b553480156200003257600080fd5b506040516200224a3803806200224a83398101604081905262000055916200018d565b604080518082018252600b81526a43727970746f20416e747360a81b602080830191825283518085019094526004845263414e545360e01b908401528151919291620000a491600091620000e7565b508051620000ba906001906020840190620000e7565b505060068054336001600160a01b03199091161790555060601b6001600160601b031916608052620001fc565b828054620000f590620001bf565b90600052602060002090601f01602090048101928262000119576000855562000164565b82601f106200013457805160ff191683800117855562000164565b8280016001018555821562000164579182015b828111156200016457825182559160200191906001019062000147565b506200017292915062000176565b5090565b5b8082111562000172576000815560010162000177565b600060208284031215620001a057600080fd5b81516001600160a01b0381168114620001b857600080fd5b9392505050565b600181811c90821680620001d457607f821691505b60208210811415620001f657634e487b7160e01b600052602260045260246000fd5b50919050565b60805160601c61200c6200023e600039600081816104d30152818161085101528181610a6f01528181610b2301528181610d0001526112e5015261200c6000f3fe6080604052600436106101b75760003560e01c80636f9fb98a116100ec578063be010c401161008a578063e1b1d0b211610064578063e1b1d0b2146104a1578063e33f76cf146104c1578063e985e9c5146104f5578063f770031c1461053e57600080fd5b8063be010c4014610447578063c87b56dd14610467578063cf3090121461048757600080fd5b8063a22cb465116100c6578063a22cb465146103d1578063a993efbc146103f1578063b011098614610407578063b88d4fde1461042757600080fd5b80636f9fb98a1461038957806370a082311461039c57806395d89b41146103bc57600080fd5b80633d87122911610159578063520f7c0e11610133578063520f7c0e146103135780635ebd7a181461032957806361dcb054146103495780636352211e1461036957600080fd5b80633d871229146102c157806342842e0e146102e05780634fd535961461030057600080fd5b8063095ea7b311610195578063095ea7b31461024b57806317e356a11461026d57806323b872dd1461028c5780632e61a7bf146102ac57600080fd5b806301ffc9a7146101bc57806306fdde03146101f1578063081812fc14610213575b600080fd5b3480156101c857600080fd5b506101dc6101d7366004611cac565b610574565b60405190151581526020015b60405180910390f35b3480156101fd57600080fd5b506102066105c6565b6040516101e89190611db0565b34801561021f57600080fd5b5061023361022e366004611ce6565b610658565b6040516001600160a01b0390911681526020016101e8565b34801561025757600080fd5b5061026b610266366004611c82565b6106f2565b005b34801561027957600080fd5b506008546101dc90610100900460ff1681565b34801561029857600080fd5b5061026b6102a7366004611b2e565b610808565b3480156102b857600080fd5b5061026b610839565b3480156102cd57600080fd5b506009545b6040519081526020016101e8565b3480156102ec57600080fd5b5061026b6102fb366004611b2e565b6109e3565b61026b61030e366004611ce6565b6109fe565b34801561031f57600080fd5b506102d2600a5481565b34801561033557600080fd5b5061026b610344366004611ce6565b610bc6565b34801561035557600080fd5b5061026b610364366004611ce6565b610dc9565b34801561037557600080fd5b50610233610384366004611ce6565b610f1f565b34801561039557600080fd5b50476102d2565b3480156103a857600080fd5b506102d26103b7366004611ae0565b610f96565b3480156103c857600080fd5b5061020661101d565b3480156103dd57600080fd5b5061026b6103ec366004611c46565b61102c565b3480156103fd57600080fd5b506102d260095481565b34801561041357600080fd5b506102d2610422366004611ce6565b6110f1565b34801561043357600080fd5b5061026b610442366004611b6a565b611112565b34801561045357600080fd5b506102d2610462366004611ce6565b61114a565b34801561047357600080fd5b50610206610482366004611ce6565b61117b565b34801561049357600080fd5b506008546101dc9060ff1681565b3480156104ad57600080fd5b5061026b6104bc366004611ce6565b611263565b3480156104cd57600080fd5b506102337f000000000000000000000000000000000000000000000000000000000000000081565b34801561050157600080fd5b506101dc610510366004611afb565b6001600160a01b03918216600090815260056020908152604080832093909416825291909152205460ff1690565b34801561054a57600080fd5b50610233610559366004611ce6565b6007602052600090815260409020546001600160a01b031681565b60006001600160e01b031982166380ac58cd60e01b14806105a557506001600160e01b03198216635b5e139f60e01b145b806105c057506301ffc9a760e01b6001600160e01b03198316145b92915050565b6060600080546105d590611efb565b80601f016020809104026020016040519081016040528092919081815260200182805461060190611efb565b801561064e5780601f106106235761010080835404028352916020019161064e565b820191906000526020600020905b81548152906001019060200180831161063157829003601f168201915b5050505050905090565b6000818152600260205260408120546001600160a01b03166106d65760405162461bcd60e51b815260206004820152602c60248201527f4552433732313a20617070726f76656420717565727920666f72206e6f6e657860448201526b34b9ba32b73a103a37b5b2b760a11b60648201526084015b60405180910390fd5b506000908152600460205260409020546001600160a01b031690565b60006106fd82610f1f565b9050806001600160a01b0316836001600160a01b0316141561076b5760405162461bcd60e51b815260206004820152602160248201527f4552433732313a20617070726f76616c20746f2063757272656e74206f776e656044820152603960f91b60648201526084016106cd565b336001600160a01b038216148061078757506107878133610510565b6107f95760405162461bcd60e51b815260206004820152603860248201527f4552433732313a20617070726f76652063616c6c6572206973206e6f74206f7760448201527f6e6572206e6f7220617070726f76656420666f7220616c6c000000000000000060648201526084016106cd565b610803838361134c565b505050565b61081233826113ba565b61082e5760405162461bcd60e51b81526004016106cd90611e3b565b6108038383836114b1565b6040516370a0823160e01b81523360048201526001907f00000000000000000000000000000000000000000000000000000000000000006001600160a01b0316906370a082319060240160206040518083038186803b15801561089b57600080fd5b505afa1580156108af573d6000803e3d6000fd5b505050506040513d601f19601f820116820180604052508101906108d39190611cff565b10156109185760405162461bcd60e51b8152602060048201526014602482015273596f7520646f206e6f742068617665206567677360601b60448201526064016106cd565b600060096000815461092990611f36565b9182905550905061093a3382611651565b60008181526007602052604080822080546001600160a01b03191633179055600d805460018181019092557fd7b6990105719101dabeb77144f2a3385c8033acd3af97e9423a695e81ad1eb501849055600c805491820181558352427fdf6966c971051c3d54ec59162606531493a51404a002842f56009d7e5cf4a8c790910155517fa38da27c8afea1e833812265c5f9c3f1def6eaf2e7d9b42c1b4d9d8ea69b0b759190a150565b61080383838360405180602001604052806000815250611112565b60085460ff1615610a3f5760405162461bcd60e51b815260206004820152600b60248201526a139bdd08105b1b1bddd95960aa1b60448201526064016106cd565b6008805460ff610100600160ff19909316928317041615151790556040805163182f1aa960e11b815290516000917f00000000000000000000000000000000000000000000000000000000000000006001600160a01b03169163305e355291600480820192602092909190829003018186803b158015610abe57600080fd5b505afa158015610ad2573d6000803e3d6000fd5b505050506040513d601f19601f82011682018060405250810190610af69190611cff565b90506000610b048234611ea4565b6040516340c10f1960e01b8152336004820152602481018590529091507f00000000000000000000000000000000000000000000000000000000000000006001600160a01b0316906340c10f1990604401600060405180830381600087803b158015610b6f57600080fd5b505af1158015610b83573d6000803e3d6000fd5b505060408051338152602081018590527fecedcda9002dd5028204a70dddaa2155459b6dff3c3e20543450a189e736dc49935001905060405180910390a1505050565b8042600c610bd5600184611eb8565b81548110610be557610be5611f91565b906000526020600020015410610c3d5760405162461bcd60e51b815260206004820152601860248201527f596f75206d7573742077616974203130206d696e75746573000000000000000060448201526064016106cd565b600b54610c4a9042611e8c565b600c610c57600184611eb8565b81548110610c6757610c67611f91565b6000918252602080832090910192909255838152600790915260409020546001600160a01b03163314610cac5760405162461bcd60e51b81526004016106cd90611dc3565b6000610cb86014611793565b905080610ce457600083815260076020526040902080546001600160a01b0319169055610803836117eb565b6040516340c10f1960e01b8152336004820152602481018290527f00000000000000000000000000000000000000000000000000000000000000006001600160a01b0316906340c10f1990604401600060405180830381600087803b158015610d4c57600080fd5b505af1158015610d60573d6000803e3d6000fd5b50505050600b5442610d729190611e8c565b600c610d7f600186611eb8565b81548110610d8f57610d8f611f91565b60009182526020822001919091556040517f9a6511200830bcf431d70326bcfcb9ac57297c1d51c059a65e67e3004c9ee4269190a1505050565b60085460ff1615610e0a5760405162461bcd60e51b815260206004820152600b60248201526a139bdd08105b1b1bddd95960aa1b60448201526064016106cd565b6008805461010060ff19909116600181179190910460ff1615151790556000818152600760205260409020546001600160a01b03163314610e5d5760405162461bcd60e51b81526004016106cd90611dc3565b600a5460405160009133918381818185875af1925050503d8060008114610ea0576040519150601f19603f3d011682016040523d82523d6000602084013e610ea5565b606091505b5050905080610ef65760405162461bcd60e51b815260206004820152601960248201527f57686f6f70732c20746869732063616c6c206661696c6564210000000000000060448201526064016106cd565b600082815260076020526040902080546001600160a01b0319169055610f1b826117eb565b5050565b6000818152600260205260408120546001600160a01b0316806105c05760405162461bcd60e51b815260206004820152602960248201527f4552433732313a206f776e657220717565727920666f72206e6f6e657869737460448201526832b73a103a37b5b2b760b91b60648201526084016106cd565b60006001600160a01b0382166110015760405162461bcd60e51b815260206004820152602a60248201527f4552433732313a2062616c616e636520717565727920666f7220746865207a65604482015269726f206164647265737360b01b60648201526084016106cd565b506001600160a01b031660009081526003602052604090205490565b6060600180546105d590611efb565b6001600160a01b0382163314156110855760405162461bcd60e51b815260206004820152601960248201527f4552433732313a20617070726f766520746f2063616c6c65720000000000000060448201526064016106cd565b3360008181526005602090815260408083206001600160a01b03871680855290835292819020805460ff191686151590811790915590519081529192917f17307eab39ab6107e8899845ad3d59bd9653f200f220920489ca2b5937696c31910160405180910390a35050565b600d818154811061110157600080fd5b600091825260209091200154905081565b61111c33836113ba565b6111385760405162461bcd60e51b81526004016106cd90611e3b565b61114484848484611886565b50505050565b6000600c611159600184611eb8565b8154811061116957611169611f91565b90600052602060002001549050919050565b6000818152600260205260409020546060906001600160a01b03166111fa5760405162461bcd60e51b815260206004820152602f60248201527f4552433732314d657461646174613a2055524920717565727920666f72206e6f60448201526e3732bc34b9ba32b73a103a37b5b2b760891b60648201526084016106cd565b600061121160408051602081019091526000815290565b90506000815111611231576040518060200160405280600081525061125c565b8061123b846118b9565b60405160200161124c929190611d44565b6040516020818303038152906040525b9392505050565b6006546001600160a01b0316331461128d5760405162461bcd60e51b81526004016106cd90611dc3565b600a5481116112cf5760405162461bcd60e51b815260206004820152600e60248201526d496e76616c69642070726963657360901b60448201526064016106cd565b6040516370f8037560e01b8152600481018290527f00000000000000000000000000000000000000000000000000000000000000006001600160a01b0316906370f8037590602401600060405180830381600087803b15801561133157600080fd5b505af1158015611345573d6000803e3d6000fd5b5050505050565b600081815260046020526040902080546001600160a01b0319166001600160a01b038416908117909155819061138182610f1f565b6001600160a01b03167f8c5be1e5ebec7d5bd14f71427d1e84f3dd0314c0f7b2291e5b200ac8c7c3b92560405160405180910390a45050565b6000818152600260205260408120546001600160a01b03166114335760405162461bcd60e51b815260206004820152602c60248201527f4552433732313a206f70657261746f7220717565727920666f72206e6f6e657860448201526b34b9ba32b73a103a37b5b2b760a11b60648201526084016106cd565b600061143e83610f1f565b9050806001600160a01b0316846001600160a01b031614806114795750836001600160a01b031661146e84610658565b6001600160a01b0316145b806114a957506001600160a01b0380821660009081526005602090815260408083209388168352929052205460ff165b949350505050565b826001600160a01b03166114c482610f1f565b6001600160a01b03161461152c5760405162461bcd60e51b815260206004820152602960248201527f4552433732313a207472616e73666572206f6620746f6b656e2074686174206960448201526839903737ba1037bbb760b91b60648201526084016106cd565b6001600160a01b03821661158e5760405162461bcd60e51b8152602060048201526024808201527f4552433732313a207472616e7366657220746f20746865207a65726f206164646044820152637265737360e01b60648201526084016106cd565b61159960008261134c565b6001600160a01b03831660009081526003602052604081208054600192906115c2908490611eb8565b90915550506001600160a01b03821660009081526003602052604081208054600192906115f0908490611e8c565b909155505060008181526002602052604080822080546001600160a01b0319166001600160a01b0386811691821790925591518493918716917fddf252ad1be2c89b69c2b068fc378daa952ba7f163c4a11628f55a4df523b3ef91a4505050565b6001600160a01b0382166116a75760405162461bcd60e51b815260206004820181905260248201527f4552433732313a206d696e7420746f20746865207a65726f206164647265737360448201526064016106cd565b6000818152600260205260409020546001600160a01b03161561170c5760405162461bcd60e51b815260206004820152601c60248201527f4552433732313a20746f6b656e20616c7265616479206d696e7465640000000060448201526064016106cd565b6001600160a01b0382166000908152600360205260408120805460019290611735908490611e8c565b909155505060008181526002602052604080822080546001600160a01b0319166001600160a01b03861690811790915590518392907fddf252ad1be2c89b69c2b068fc378daa952ba7f163c4a11628f55a4df523b3ef908290a45050565b604080514260208201526bffffffffffffffffffffffff193360601b169181019190915260006054820181905290819083906074016040516020818303038152906040528051906020012060001c61125c9190611f51565b60006117f682610f1f565b905061180360008361134c565b6001600160a01b038116600090815260036020526040812080546001929061182c908490611eb8565b909155505060008281526002602052604080822080546001600160a01b0319169055518391906001600160a01b038416907fddf252ad1be2c89b69c2b068fc378daa952ba7f163c4a11628f55a4df523b3ef908390a45050565b6118918484846114b1565b61189d848484846119b7565b6111445760405162461bcd60e51b81526004016106cd90611de9565b6060816118dd5750506040805180820190915260018152600360fc1b602082015290565b8160005b811561190757806118f181611f36565b91506119009050600a83611ea4565b91506118e1565b60008167ffffffffffffffff81111561192257611922611fa7565b6040519080825280601f01601f19166020018201604052801561194c576020820181803683370190505b5090505b84156114a957611961600183611eb8565b915061196e600a86611f51565b611979906030611e8c565b60f81b81838151811061198e5761198e611f91565b60200101906001600160f81b031916908160001a9053506119b0600a86611ea4565b9450611950565b60006001600160a01b0384163b15611ab957604051630a85bd0160e11b81526001600160a01b0385169063150b7a02906119fb903390899088908890600401611d73565b602060405180830381600087803b158015611a1557600080fd5b505af1925050508015611a45575060408051601f3d908101601f19168201909252611a4291810190611cc9565b60015b611a9f573d808015611a73576040519150601f19603f3d011682016040523d82523d6000602084013e611a78565b606091505b508051611a975760405162461bcd60e51b81526004016106cd90611de9565b805181602001fd5b6001600160e01b031916630a85bd0160e11b1490506114a9565b506001949350505050565b80356001600160a01b0381168114611adb57600080fd5b919050565b600060208284031215611af257600080fd5b61125c82611ac4565b60008060408385031215611b0e57600080fd5b611b1783611ac4565b9150611b2560208401611ac4565b90509250929050565b600080600060608486031215611b4357600080fd5b611b4c84611ac4565b9250611b5a60208501611ac4565b9150604084013590509250925092565b60008060008060808587031215611b8057600080fd5b611b8985611ac4565b9350611b9760208601611ac4565b925060408501359150606085013567ffffffffffffffff80821115611bbb57600080fd5b818701915087601f830112611bcf57600080fd5b813581811115611be157611be1611fa7565b604051601f8201601f19908116603f01168101908382118183101715611c0957611c09611fa7565b816040528281528a6020848701011115611c2257600080fd5b82602086016020830137600060208483010152809550505050505092959194509250565b60008060408385031215611c5957600080fd5b611c6283611ac4565b915060208301358015158114611c7757600080fd5b809150509250929050565b60008060408385031215611c9557600080fd5b611c9e83611ac4565b946020939093013593505050565b600060208284031215611cbe57600080fd5b813561125c81611fbd565b600060208284031215611cdb57600080fd5b815161125c81611fbd565b600060208284031215611cf857600080fd5b5035919050565b600060208284031215611d1157600080fd5b5051919050565b60008151808452611d30816020860160208601611ecf565b601f01601f19169290920160200192915050565b60008351611d56818460208801611ecf565b835190830190611d6a818360208801611ecf565b01949350505050565b6001600160a01b0385811682528416602082015260408101839052608060608201819052600090611da690830184611d18565b9695505050505050565b60208152600061125c6020830184611d18565b6020808252600c908201526b155b985d5d1a1bdc9a5e995960a21b604082015260600190565b60208082526032908201527f4552433732313a207472616e7366657220746f206e6f6e20455243373231526560408201527131b2b4bb32b91034b6b83632b6b2b73a32b960711b606082015260800190565b60208082526031908201527f4552433732313a207472616e736665722063616c6c6572206973206e6f74206f6040820152701ddb995c881b9bdc88185c1c1c9bdd9959607a1b606082015260800190565b60008219821115611e9f57611e9f611f65565b500190565b600082611eb357611eb3611f7b565b500490565b600082821015611eca57611eca611f65565b500390565b60005b83811015611eea578181015183820152602001611ed2565b838111156111445750506000910152565b600181811c90821680611f0f57607f821691505b60208210811415611f3057634e487b7160e01b600052602260045260246000fd5b50919050565b6000600019821415611f4a57611f4a611f65565b5060010190565b600082611f6057611f60611f7b565b500690565b634e487b7160e01b600052601160045260246000fd5b634e487b7160e01b600052601260045260246000fd5b634e487b7160e01b600052603260045260246000fd5b634e487b7160e01b600052604160045260246000fd5b6001600160e01b031981168114611fd357600080fd5b5056fea26469706673582212205c9c292e9b3b50bd0f25bbf1e5e7fd2f01790b38cf416618474e5be7a67bd8cb64736f6c63430008070033",
  "devdoc": {
    "kind": "dev",
    "methods": {
      "approve(address,uint256)": {
        "details": "See {IERC721-approve}."
      },
      "balanceOf(address)": {
        "details": "See {IERC721-balanceOf}."
      },
      "getApproved(uint256)": {
        "details": "See {IERC721-getApproved}."
      },
      "isApprovedForAll(address,address)": {
        "details": "See {IERC721-isApprovedForAll}."
      },
      "name()": {
        "details": "See {IERC721Metadata-name}."
      },
      "ownerOf(uint256)": {
        "details": "See {IERC721-ownerOf}."
      },
      "safeTransferFrom(address,address,uint256)": {
        "details": "See {IERC721-safeTransferFrom}."
      },
      "safeTransferFrom(address,address,uint256,bytes)": {
        "details": "See {IERC721-safeTransferFrom}."
      },
      "setApprovalForAll(address,bool)": {
        "details": "See {IERC721-setApprovalForAll}."
      },
      "supportsInterface(bytes4)": {
        "details": "See {IERC165-supportsInterface}."
      },
      "symbol()": {
        "details": "See {IERC721Metadata-symbol}."
      },
      "tokenURI(uint256)": {
        "details": "See {IERC721Metadata-tokenURI}."
      },
      "transferFrom(address,address,uint256)": {
        "details": "See {IERC721-transferFrom}."
      }
    },
    "version": 1
  },
  "userdoc": {
    "kind": "user",
    "methods": {},
    "version": 1
  },
  "storageLayout": {
    "storage": [
      {
        "astId": 674,
        "contract": "contracts/CryptoAnts.sol:CryptoAnts",
        "label": "_name",
        "offset": 0,
        "slot": "0",
        "type": "t_string_storage"
      },
      {
        "astId": 676,
        "contract": "contracts/CryptoAnts.sol:CryptoAnts",
        "label": "_symbol",
        "offset": 0,
        "slot": "1",
        "type": "t_string_storage"
      },
      {
        "astId": 680,
        "contract": "contracts/CryptoAnts.sol:CryptoAnts",
        "label": "_owners",
        "offset": 0,
        "slot": "2",
        "type": "t_mapping(t_uint256,t_address)"
      },
      {
        "astId": 684,
        "contract": "contracts/CryptoAnts.sol:CryptoAnts",
        "label": "_balances",
        "offset": 0,
        "slot": "3",
        "type": "t_mapping(t_address,t_uint256)"
      },
      {
        "astId": 688,
        "contract": "contracts/CryptoAnts.sol:CryptoAnts",
        "label": "_tokenApprovals",
        "offset": 0,
        "slot": "4",
        "type": "t_mapping(t_uint256,t_address)"
      },
      {
        "astId": 694,
        "contract": "contracts/CryptoAnts.sol:CryptoAnts",
        "label": "_operatorApprovals",
        "offset": 0,
        "slot": "5",
        "type": "t_mapping(t_address,t_mapping(t_address,t_bool))"
      },
      {
        "astId": 2244,
        "contract": "contracts/CryptoAnts.sol:CryptoAnts",
        "label": "_owner",
        "offset": 0,
        "slot": "6",
        "type": "t_address"
      },
      {
        "astId": 2248,
        "contract": "contracts/CryptoAnts.sol:CryptoAnts",
        "label": "antToOwner",
        "offset": 0,
        "slot": "7",
        "type": "t_mapping(t_uint256,t_address)"
      },
      {
        "astId": 2251,
        "contract": "contracts/CryptoAnts.sol:CryptoAnts",
        "label": "locked",
        "offset": 0,
        "slot": "8",
        "type": "t_bool"
      },
      {
        "astId": 2255,
        "contract": "contracts/CryptoAnts.sol:CryptoAnts",
        "label": "notLocked",
        "offset": 1,
        "slot": "8",
        "type": "t_bool"
      },
      {
        "astId": 2258,
        "contract": "contracts/CryptoAnts.sol:CryptoAnts",
        "label": "antsCreated",
        "offset": 0,
        "slot": "9",
        "type": "t_uint256"
      },
      {
        "astId": 2261,
        "contract": "contracts/CryptoAnts.sol:CryptoAnts",
        "label": "antPrice",
        "offset": 0,
        "slot": "10",
        "type": "t_uint256"
      },
      {
        "astId": 2264,
        "contract": "contracts/CryptoAnts.sol:CryptoAnts",
        "label": "_waitTime",
        "offset": 0,
        "slot": "11",
        "type": "t_uint256"
      },
      {
        "astId": 2267,
        "contract": "contracts/CryptoAnts.sol:CryptoAnts",
        "label": "_expiryOf",
        "offset": 0,
        "slot": "12",
        "type": "t_array(t_uint256)dyn_storage"
      },
      {
        "astId": 2270,
        "contract": "contracts/CryptoAnts.sol:CryptoAnts",
        "label": "allAntsIds",
        "offset": 0,
        "slot": "13",
        "type": "t_array(t_uint256)dyn_storage"
      }
    ],
    "types": {
      "t_address": {
        "encoding": "inplace",
        "label": "address",
        "numberOfBytes": "20"
      },
      "t_array(t_uint256)dyn_storage": {
        "base": "t_uint256",
        "encoding": "dynamic_array",
        "label": "uint256[]",
        "numberOfBytes": "32"
      },
      "t_bool": {
        "encoding": "inplace",
        "label": "bool",
        "numberOfBytes": "1"
      },
      "t_mapping(t_address,t_bool)": {
        "encoding": "mapping",
        "key": "t_address",
        "label": "mapping(address => bool)",
        "numberOfBytes": "32",
        "value": "t_bool"
      },
      "t_mapping(t_address,t_mapping(t_address,t_bool))": {
        "encoding": "mapping",
        "key": "t_address",
        "label": "mapping(address => mapping(address => bool))",
        "numberOfBytes": "32",
        "value": "t_mapping(t_address,t_bool)"
      },
      "t_mapping(t_address,t_uint256)": {
        "encoding": "mapping",
        "key": "t_address",
        "label": "mapping(address => uint256)",
        "numberOfBytes": "32",
        "value": "t_uint256"
      },
      "t_mapping(t_uint256,t_address)": {
        "encoding": "mapping",
        "key": "t_uint256",
        "label": "mapping(uint256 => address)",
        "numberOfBytes": "32",
        "value": "t_address"
      },
      "t_string_storage": {
        "encoding": "bytes",
        "label": "string",
        "numberOfBytes": "32"
      },
      "t_uint256": {
        "encoding": "inplace",
        "label": "uint256",
        "numberOfBytes": "32"
      }
    }
  }
}