{
  "address": "0x174a39aCb99e92d59E2c4a0c685249bb7527c003",
  "abi": [
    {
      "inputs": [
        {
          "internalType": "address",
          "name": "_eggs",
          "type": "address"
        }
      ],
      "stateMutability": "nonpayable",
      "type": "constructor"
    },
    {
      "inputs": [],
      "name": "AlreadyExists",
      "type": "error"
    },
    {
      "inputs": [],
      "name": "NoEggs",
      "type": "error"
    },
    {
      "inputs": [],
      "name": "NoZeroAddress",
      "type": "error"
    },
    {
      "inputs": [],
      "name": "WrongEtherSent",
      "type": "error"
    },
    {
      "anonymous": false,
      "inputs": [],
      "name": "AntCreated",
      "type": "event"
    },
    {
      "anonymous": false,
      "inputs": [],
      "name": "AntSold",
      "type": "event"
    },
    {
      "anonymous": false,
      "inputs": [
        {
          "indexed": true,
          "internalType": "address",
          "name": "owner",
          "type": "address"
        },
        {
          "indexed": true,
          "internalType": "address",
          "name": "approved",
          "type": "address"
        },
        {
          "indexed": true,
          "internalType": "uint256",
          "name": "tokenId",
          "type": "uint256"
        }
      ],
      "name": "Approval",
      "type": "event"
    },
    {
      "anonymous": false,
      "inputs": [
        {
          "indexed": true,
          "internalType": "address",
          "name": "owner",
          "type": "address"
        },
        {
          "indexed": true,
          "internalType": "address",
          "name": "operator",
          "type": "address"
        },
        {
          "indexed": false,
          "internalType": "bool",
          "name": "approved",
          "type": "bool"
        }
      ],
      "name": "ApprovalForAll",
      "type": "event"
    },
    {
      "anonymous": false,
      "inputs": [
        {
          "indexed": false,
          "internalType": "address",
          "name": "",
          "type": "address"
        },
        {
          "indexed": false,
          "internalType": "uint256",
          "name": "",
          "type": "uint256"
        }
      ],
      "name": "EggsBought",
      "type": "event"
    },
    {
      "anonymous": false,
      "inputs": [
        {
          "indexed": true,
          "internalType": "address",
          "name": "from",
          "type": "address"
        },
        {
          "indexed": true,
          "internalType": "address",
          "name": "to",
          "type": "address"
        },
        {
          "indexed": true,
          "internalType": "uint256",
          "name": "tokenId",
          "type": "uint256"
        }
      ],
      "name": "Transfer",
      "type": "event"
    },
    {
      "inputs": [
        {
          "internalType": "uint256",
          "name": "",
          "type": "uint256"
        }
      ],
      "name": "allAntsIds",
      "outputs": [
        {
          "internalType": "uint256",
          "name": "",
          "type": "uint256"
        }
      ],
      "stateMutability": "view",
      "type": "function"
    },
    {
      "inputs": [
        {
          "internalType": "uint256",
          "name": "",
          "type": "uint256"
        }
      ],
      "name": "antToOwner",
      "outputs": [
        {
          "internalType": "address",
          "name": "",
          "type": "address"
        }
      ],
      "stateMutability": "view",
      "type": "function"
    },
    {
      "inputs": [],
      "name": "antsCreated",
      "outputs": [
        {
          "internalType": "uint256",
          "name": "",
          "type": "uint256"
        }
      ],
      "stateMutability": "view",
      "type": "function"
    },
    {
      "inputs": [
        {
          "internalType": "address",
          "name": "to",
          "type": "address"
        },
        {
          "internalType": "uint256",
          "name": "tokenId",
          "type": "uint256"
        }
      ],
      "name": "approve",
      "outputs": [],
      "stateMutability": "nonpayable",
      "type": "function"
    },
    {
      "inputs": [
        {
          "internalType": "address",
          "name": "owner",
          "type": "address"
        }
      ],
      "name": "balanceOf",
      "outputs": [
        {
          "internalType": "uint256",
          "name": "",
          "type": "uint256"
        }
      ],
      "stateMutability": "view",
      "type": "function"
    },
    {
      "inputs": [
        {
          "internalType": "uint256",
          "name": "_amount",
          "type": "uint256"
        }
      ],
      "name": "buyEggs",
      "outputs": [],
      "stateMutability": "payable",
      "type": "function"
    },
    {
      "inputs": [],
      "name": "createAnt",
      "outputs": [],
      "stateMutability": "nonpayable",
      "type": "function"
    },
    {
      "inputs": [],
      "name": "eggPrice",
      "outputs": [
        {
          "internalType": "uint256",
          "name": "",
          "type": "uint256"
        }
      ],
      "stateMutability": "view",
      "type": "function"
    },
    {
      "inputs": [],
      "name": "eggs",
      "outputs": [
        {
          "internalType": "contract IEgg",
          "name": "",
          "type": "address"
        }
      ],
      "stateMutability": "view",
      "type": "function"
    },
    {
      "inputs": [],
      "name": "getAntsCreated",
      "outputs": [
        {
          "internalType": "uint256",
          "name": "",
          "type": "uint256"
        }
      ],
      "stateMutability": "view",
      "type": "function"
    },
    {
      "inputs": [
        {
          "internalType": "uint256",
          "name": "tokenId",
          "type": "uint256"
        }
      ],
      "name": "getApproved",
      "outputs": [
        {
          "internalType": "address",
          "name": "",
          "type": "address"
        }
      ],
      "stateMutability": "view",
      "type": "function"
    },
    {
      "inputs": [],
      "name": "getContractBalance",
      "outputs": [
        {
          "internalType": "uint256",
          "name": "",
          "type": "uint256"
        }
      ],
      "stateMutability": "view",
      "type": "function"
    },
    {
      "inputs": [
        {
          "internalType": "address",
          "name": "owner",
          "type": "address"
        },
        {
          "internalType": "address",
          "name": "operator",
          "type": "address"
        }
      ],
      "name": "isApprovedForAll",
      "outputs": [
        {
          "internalType": "bool",
          "name": "",
          "type": "bool"
        }
      ],
      "stateMutability": "view",
      "type": "function"
    },
    {
      "inputs": [],
      "name": "locked",
      "outputs": [
        {
          "internalType": "bool",
          "name": "",
          "type": "bool"
        }
      ],
      "stateMutability": "view",
      "type": "function"
    },
    {
      "inputs": [],
      "name": "name",
      "outputs": [
        {
          "internalType": "string",
          "name": "",
          "type": "string"
        }
      ],
      "stateMutability": "view",
      "type": "function"
    },
    {
      "inputs": [],
      "name": "notLocked",
      "outputs": [
        {
          "internalType": "bool",
          "name": "",
          "type": "bool"
        }
      ],
      "stateMutability": "view",
      "type": "function"
    },
    {
      "inputs": [
        {
          "internalType": "uint256",
          "name": "tokenId",
          "type": "uint256"
        }
      ],
      "name": "ownerOf",
      "outputs": [
        {
          "internalType": "address",
          "name": "",
          "type": "address"
        }
      ],
      "stateMutability": "view",
      "type": "function"
    },
    {
      "inputs": [
        {
          "internalType": "address",
          "name": "from",
          "type": "address"
        },
        {
          "internalType": "address",
          "name": "to",
          "type": "address"
        },
        {
          "internalType": "uint256",
          "name": "tokenId",
          "type": "uint256"
        }
      ],
      "name": "safeTransferFrom",
      "outputs": [],
      "stateMutability": "nonpayable",
      "type": "function"
    },
    {
      "inputs": [
        {
          "internalType": "address",
          "name": "from",
          "type": "address"
        },
        {
          "internalType": "address",
          "name": "to",
          "type": "address"
        },
        {
          "internalType": "uint256",
          "name": "tokenId",
          "type": "uint256"
        },
        {
          "internalType": "bytes",
          "name": "_data",
          "type": "bytes"
        }
      ],
      "name": "safeTransferFrom",
      "outputs": [],
      "stateMutability": "nonpayable",
      "type": "function"
    },
    {
      "inputs": [
        {
          "internalType": "uint256",
          "name": "_antId",
          "type": "uint256"
        }
      ],
      "name": "sellAnt",
      "outputs": [],
      "stateMutability": "nonpayable",
      "type": "function"
    },
    {
      "inputs": [
        {
          "internalType": "address",
          "name": "operator",
          "type": "address"
        },
        {
          "internalType": "bool",
          "name": "approved",
          "type": "bool"
        }
      ],
      "name": "setApprovalForAll",
      "outputs": [],
      "stateMutability": "nonpayable",
      "type": "function"
    },
    {
      "inputs": [
        {
          "internalType": "bytes4",
          "name": "interfaceId",
          "type": "bytes4"
        }
      ],
      "name": "supportsInterface",
      "outputs": [
        {
          "internalType": "bool",
          "name": "",
          "type": "bool"
        }
      ],
      "stateMutability": "view",
      "type": "function"
    },
    {
      "inputs": [],
      "name": "symbol",
      "outputs": [
        {
          "internalType": "string",
          "name": "",
          "type": "string"
        }
      ],
      "stateMutability": "view",
      "type": "function"
    },
    {
      "inputs": [
        {
          "internalType": "uint256",
          "name": "tokenId",
          "type": "uint256"
        }
      ],
      "name": "tokenURI",
      "outputs": [
        {
          "internalType": "string",
          "name": "",
          "type": "string"
        }
      ],
      "stateMutability": "view",
      "type": "function"
    },
    {
      "inputs": [
        {
          "internalType": "address",
          "name": "from",
          "type": "address"
        },
        {
          "internalType": "address",
          "name": "to",
          "type": "address"
        },
        {
          "internalType": "uint256",
          "name": "tokenId",
          "type": "uint256"
        }
      ],
      "name": "transferFrom",
      "outputs": [],
      "stateMutability": "nonpayable",
      "type": "function"
    }
  ],
  "transactionHash": "0x7dc425e0655260229ec6a72adb1a9ec5f068da21b58ab5aead278328e32933f2",
  "args": [
    "0x38F3129dc8D8306814C6A8F1F721F6520DB86D4F"
  ],
  "solcInputHash": "e3cff599528420fa44beff56adc2a9d4",
  "bytecode": "0x60a06040526006805460ff19908116909155662386f26fc10000600855600a805490911690556000600b553480156200003757600080fd5b5060405162001d3f38038062001d3f8339810160408190526200005a916200017e565b604080518082018252600b81526a43727970746f20416e747360a81b602080830191825283518085019094526004845263414e545360e01b908401528151919291620000a991600091620000d8565b508051620000bf906001906020840190620000d8565b50505060601b6001600160601b031916608052620001ed565b828054620000e690620001b0565b90600052602060002090601f0160209004810192826200010a576000855562000155565b82601f106200012557805160ff191683800117855562000155565b8280016001018555821562000155579182015b828111156200015557825182559160200191906001019062000138565b506200016392915062000167565b5090565b5b8082111562000163576000815560010162000168565b6000602082840312156200019157600080fd5b81516001600160a01b0381168114620001a957600080fd5b9392505050565b600181811c90821680620001c557607f821691505b60208210811415620001e757634e487b7160e01b600052602260045260246000fd5b50919050565b60805160601c611b256200021a600039600081816104210152818161079f01526109f80152611b256000f3fe6080604052600436106101665760003560e01c80636352211e116100d1578063b01109861161008a578063cf30901211610064578063cf309012146103f5578063e33f76cf1461040f578063e985e9c514610443578063f770031c1461048c57600080fd5b8063b011098614610395578063b88d4fde146103b5578063c87b56dd146103d557600080fd5b80636352211e146102f75780636f9fb98a1461031757806370a082311461032a57806395d89b411461034a578063a22cb4651461035f578063a993efbc1461037f57600080fd5b80632e61a7bf116101235780632e61a7bf14610256578063305e35521461026b5780633d8712291461028f57806342842e0e146102a45780634fd53596146102c457806361dcb054146102d757600080fd5b806301ffc9a71461016b57806306fdde03146101a0578063081812fc146101c2578063095ea7b3146101fa57806317e356a11461021c57806323b872dd14610236575b600080fd5b34801561017757600080fd5b5061018b6101863660046117eb565b6104c2565b60405190151581526020015b60405180910390f35b3480156101ac57600080fd5b506101b5610514565b60405161019791906118ef565b3480156101ce57600080fd5b506101e26101dd366004611825565b6105a6565b6040516001600160a01b039091168152602001610197565b34801561020657600080fd5b5061021a6102153660046117c1565b610640565b005b34801561022857600080fd5b50600a5461018b9060ff1681565b34801561024257600080fd5b5061021a61025136600461166d565b610756565b34801561026257600080fd5b5061021a610787565b34801561027757600080fd5b5061028160085481565b604051908152602001610197565b34801561029b57600080fd5b50600b54610281565b3480156102b057600080fd5b5061021a6102bf36600461166d565b610938565b61021a6102d2366004611825565b610953565b3480156102e357600080fd5b5061021a6102f2366004611825565b610ab3565b34801561030357600080fd5b506101e2610312366004611825565b610bd0565b34801561032357600080fd5b5047610281565b34801561033657600080fd5b5061028161034536600461161f565b610c47565b34801561035657600080fd5b506101b5610cce565b34801561036b57600080fd5b5061021a61037a366004611785565b610cdd565b34801561038b57600080fd5b50610281600b5481565b3480156103a157600080fd5b506102816103b0366004611825565b610da2565b3480156103c157600080fd5b5061021a6103d03660046116a9565b610dc3565b3480156103e157600080fd5b506101b56103f0366004611825565b610dfb565b34801561040157600080fd5b5060065461018b9060ff1681565b34801561041b57600080fd5b506101e27f000000000000000000000000000000000000000000000000000000000000000081565b34801561044f57600080fd5b5061018b61045e36600461163a565b6001600160a01b03918216600090815260056020908152604080832093909416825291909152205460ff1690565b34801561049857600080fd5b506101e26104a7366004611825565b6007602052600090815260409020546001600160a01b031681565b60006001600160e01b031982166380ac58cd60e01b14806104f357506001600160e01b03198216635b5e139f60e01b145b8061050e57506301ffc9a760e01b6001600160e01b03198316145b92915050565b60606000805461052390611a14565b80601f016020809104026020016040519081016040528092919081815260200182805461054f90611a14565b801561059c5780601f106105715761010080835404028352916020019161059c565b820191906000526020600020905b81548152906001019060200180831161057f57829003601f168201915b5050505050905090565b6000818152600260205260408120546001600160a01b03166106245760405162461bcd60e51b815260206004820152602c60248201527f4552433732313a20617070726f76656420717565727920666f72206e6f6e657860448201526b34b9ba32b73a103a37b5b2b760a11b60648201526084015b60405180910390fd5b506000908152600460205260409020546001600160a01b031690565b600061064b82610bd0565b9050806001600160a01b0316836001600160a01b031614156106b95760405162461bcd60e51b815260206004820152602160248201527f4552433732313a20617070726f76616c20746f2063757272656e74206f776e656044820152603960f91b606482015260840161061b565b336001600160a01b03821614806106d557506106d5813361045e565b6107475760405162461bcd60e51b815260206004820152603860248201527f4552433732313a20617070726f76652063616c6c6572206973206e6f74206f7760448201527f6e6572206e6f7220617070726f76656420666f7220616c6c0000000000000000606482015260840161061b565b6107518383610ee3565b505050565b6107603382610f51565b61077c5760405162461bcd60e51b815260040161061b90611954565b610751838383611048565b6040516370a0823160e01b81523360048201526001907f00000000000000000000000000000000000000000000000000000000000000006001600160a01b0316906370a082319060240160206040518083038186803b1580156107e957600080fd5b505afa1580156107fd573d6000803e3d6000fd5b505050506040513d601f19601f82011682018060405250810190610821919061183e565b101561084057604051636c308a2f60e01b815260040160405180910390fd5b600b80546000918261085183611a4f565b91905055905060005b6009548110156108b457816009828154811061087857610878611aaa565b906000526020600020015414156108a25760405163119b4fd360e11b815260040160405180910390fd5b806108ac81611a4f565b91505061085a565b506108bf33826111e8565b60008181526007602052604080822080546001600160a01b03191633179055600980546001810182559083527f6e1540171b6c0c960b71a7020d9f60077f6af931a8bbf590da0223dacf75c7af01839055517fa38da27c8afea1e833812265c5f9c3f1def6eaf2e7d9b42c1b4d9d8ea69b0b759190a150565b61075183838360405180602001604052806000815250610dc3565b60065460ff16156109bd5760405162461bcd60e51b815260206004820152602e60248201527f536f7272792c20796f7520617265206e6f7420616c6c6f77656420746f20726560448201526d2d656e7465722068657265203a2960901b606482015260840161061b565b6006805460ff1916600117905560085460006109d982346119bd565b6040516340c10f1960e01b8152336004820152602481018590529091507f00000000000000000000000000000000000000000000000000000000000000006001600160a01b0316906340c10f1990604401600060405180830381600087803b158015610a4457600080fd5b505af1158015610a58573d6000803e3d6000fd5b505060408051338152602081018590527fecedcda9002dd5028204a70dddaa2155459b6dff3c3e20543450a189e736dc49935001905060405180910390a15050600a546006805460ff191660ff909216151591909117905550565b6000818152600760205260409020546001600160a01b03163314610b085760405162461bcd60e51b815260206004820152600c60248201526b155b985d5d1a1bdc9a5e995960a21b604482015260640161061b565b6040516000903390660e35fa931a0000908381818185875af1925050503d8060008114610b51576040519150601f19603f3d011682016040523d82523d6000602084013e610b56565b606091505b5050905080610ba75760405162461bcd60e51b815260206004820152601960248201527f57686f6f70732c20746869732063616c6c206661696c65642100000000000000604482015260640161061b565b600082815260076020526040902080546001600160a01b0319169055610bcc8261132a565b5050565b6000818152600260205260408120546001600160a01b03168061050e5760405162461bcd60e51b815260206004820152602960248201527f4552433732313a206f776e657220717565727920666f72206e6f6e657869737460448201526832b73a103a37b5b2b760b91b606482015260840161061b565b60006001600160a01b038216610cb25760405162461bcd60e51b815260206004820152602a60248201527f4552433732313a2062616c616e636520717565727920666f7220746865207a65604482015269726f206164647265737360b01b606482015260840161061b565b506001600160a01b031660009081526003602052604090205490565b60606001805461052390611a14565b6001600160a01b038216331415610d365760405162461bcd60e51b815260206004820152601960248201527f4552433732313a20617070726f766520746f2063616c6c657200000000000000604482015260640161061b565b3360008181526005602090815260408083206001600160a01b03871680855290835292819020805460ff191686151590811790915590519081529192917f17307eab39ab6107e8899845ad3d59bd9653f200f220920489ca2b5937696c31910160405180910390a35050565b60098181548110610db257600080fd5b600091825260209091200154905081565b610dcd3383610f51565b610de95760405162461bcd60e51b815260040161061b90611954565b610df5848484846113c5565b50505050565b6000818152600260205260409020546060906001600160a01b0316610e7a5760405162461bcd60e51b815260206004820152602f60248201527f4552433732314d657461646174613a2055524920717565727920666f72206e6f60448201526e3732bc34b9ba32b73a103a37b5b2b760891b606482015260840161061b565b6000610e9160408051602081019091526000815290565b90506000815111610eb15760405180602001604052806000815250610edc565b80610ebb846113f8565b604051602001610ecc929190611883565b6040516020818303038152906040525b9392505050565b600081815260046020526040902080546001600160a01b0319166001600160a01b0384169081179091558190610f1882610bd0565b6001600160a01b03167f8c5be1e5ebec7d5bd14f71427d1e84f3dd0314c0f7b2291e5b200ac8c7c3b92560405160405180910390a45050565b6000818152600260205260408120546001600160a01b0316610fca5760405162461bcd60e51b815260206004820152602c60248201527f4552433732313a206f70657261746f7220717565727920666f72206e6f6e657860448201526b34b9ba32b73a103a37b5b2b760a11b606482015260840161061b565b6000610fd583610bd0565b9050806001600160a01b0316846001600160a01b031614806110105750836001600160a01b0316611005846105a6565b6001600160a01b0316145b8061104057506001600160a01b0380821660009081526005602090815260408083209388168352929052205460ff165b949350505050565b826001600160a01b031661105b82610bd0565b6001600160a01b0316146110c35760405162461bcd60e51b815260206004820152602960248201527f4552433732313a207472616e73666572206f6620746f6b656e2074686174206960448201526839903737ba1037bbb760b91b606482015260840161061b565b6001600160a01b0382166111255760405162461bcd60e51b8152602060048201526024808201527f4552433732313a207472616e7366657220746f20746865207a65726f206164646044820152637265737360e01b606482015260840161061b565b611130600082610ee3565b6001600160a01b03831660009081526003602052604081208054600192906111599084906119d1565b90915550506001600160a01b03821660009081526003602052604081208054600192906111879084906119a5565b909155505060008181526002602052604080822080546001600160a01b0319166001600160a01b0386811691821790925591518493918716917fddf252ad1be2c89b69c2b068fc378daa952ba7f163c4a11628f55a4df523b3ef91a4505050565b6001600160a01b03821661123e5760405162461bcd60e51b815260206004820181905260248201527f4552433732313a206d696e7420746f20746865207a65726f2061646472657373604482015260640161061b565b6000818152600260205260409020546001600160a01b0316156112a35760405162461bcd60e51b815260206004820152601c60248201527f4552433732313a20746f6b656e20616c7265616479206d696e74656400000000604482015260640161061b565b6001600160a01b03821660009081526003602052604081208054600192906112cc9084906119a5565b909155505060008181526002602052604080822080546001600160a01b0319166001600160a01b03861690811790915590518392907fddf252ad1be2c89b69c2b068fc378daa952ba7f163c4a11628f55a4df523b3ef908290a45050565b600061133582610bd0565b9050611342600083610ee3565b6001600160a01b038116600090815260036020526040812080546001929061136b9084906119d1565b909155505060008281526002602052604080822080546001600160a01b0319169055518391906001600160a01b038416907fddf252ad1be2c89b69c2b068fc378daa952ba7f163c4a11628f55a4df523b3ef908390a45050565b6113d0848484611048565b6113dc848484846114f6565b610df55760405162461bcd60e51b815260040161061b90611902565b60608161141c5750506040805180820190915260018152600360fc1b602082015290565b8160005b8115611446578061143081611a4f565b915061143f9050600a836119bd565b9150611420565b60008167ffffffffffffffff81111561146157611461611ac0565b6040519080825280601f01601f19166020018201604052801561148b576020820181803683370190505b5090505b8415611040576114a06001836119d1565b91506114ad600a86611a6a565b6114b89060306119a5565b60f81b8183815181106114cd576114cd611aaa565b60200101906001600160f81b031916908160001a9053506114ef600a866119bd565b945061148f565b60006001600160a01b0384163b156115f857604051630a85bd0160e11b81526001600160a01b0385169063150b7a029061153a9033908990889088906004016118b2565b602060405180830381600087803b15801561155457600080fd5b505af1925050508015611584575060408051601f3d908101601f1916820190925261158191810190611808565b60015b6115de573d8080156115b2576040519150601f19603f3d011682016040523d82523d6000602084013e6115b7565b606091505b5080516115d65760405162461bcd60e51b815260040161061b90611902565b805181602001fd5b6001600160e01b031916630a85bd0160e11b149050611040565b506001949350505050565b80356001600160a01b038116811461161a57600080fd5b919050565b60006020828403121561163157600080fd5b610edc82611603565b6000806040838503121561164d57600080fd5b61165683611603565b915061166460208401611603565b90509250929050565b60008060006060848603121561168257600080fd5b61168b84611603565b925061169960208501611603565b9150604084013590509250925092565b600080600080608085870312156116bf57600080fd5b6116c885611603565b93506116d660208601611603565b925060408501359150606085013567ffffffffffffffff808211156116fa57600080fd5b818701915087601f83011261170e57600080fd5b81358181111561172057611720611ac0565b604051601f8201601f19908116603f0116810190838211818310171561174857611748611ac0565b816040528281528a602084870101111561176157600080fd5b82602086016020830137600060208483010152809550505050505092959194509250565b6000806040838503121561179857600080fd5b6117a183611603565b9150602083013580151581146117b657600080fd5b809150509250929050565b600080604083850312156117d457600080fd5b6117dd83611603565b946020939093013593505050565b6000602082840312156117fd57600080fd5b8135610edc81611ad6565b60006020828403121561181a57600080fd5b8151610edc81611ad6565b60006020828403121561183757600080fd5b5035919050565b60006020828403121561185057600080fd5b5051919050565b6000815180845261186f8160208601602086016119e8565b601f01601f19169290920160200192915050565b600083516118958184602088016119e8565b8351908301906118a98183602088016119e8565b01949350505050565b6001600160a01b03858116825284166020820152604081018390526080606082018190526000906118e590830184611857565b9695505050505050565b602081526000610edc6020830184611857565b60208082526032908201527f4552433732313a207472616e7366657220746f206e6f6e20455243373231526560408201527131b2b4bb32b91034b6b83632b6b2b73a32b960711b606082015260800190565b60208082526031908201527f4552433732313a207472616e736665722063616c6c6572206973206e6f74206f6040820152701ddb995c881b9bdc88185c1c1c9bdd9959607a1b606082015260800190565b600082198211156119b8576119b8611a7e565b500190565b6000826119cc576119cc611a94565b500490565b6000828210156119e3576119e3611a7e565b500390565b60005b83811015611a035781810151838201526020016119eb565b83811115610df55750506000910152565b600181811c90821680611a2857607f821691505b60208210811415611a4957634e487b7160e01b600052602260045260246000fd5b50919050565b6000600019821415611a6357611a63611a7e565b5060010190565b600082611a7957611a79611a94565b500690565b634e487b7160e01b600052601160045260246000fd5b634e487b7160e01b600052601260045260246000fd5b634e487b7160e01b600052603260045260246000fd5b634e487b7160e01b600052604160045260246000fd5b6001600160e01b031981168114611aec57600080fd5b5056fea26469706673582212206cc6caf9459f2b33cd5fc88c1c820ac16c153ee3068f6ac7c854fe805968afb464736f6c63430008070033",
  "devdoc": {
    "kind": "dev",
    "methods": {
      "approve(address,uint256)": {
        "details": "See {IERC721-approve}."
      },
      "balanceOf(address)": {
        "details": "See {IERC721-balanceOf}."
      },
      "getApproved(uint256)": {
        "details": "See {IERC721-getApproved}."
      },
      "isApprovedForAll(address,address)": {
        "details": "See {IERC721-isApprovedForAll}."
      },
      "name()": {
        "details": "See {IERC721Metadata-name}."
      },
      "ownerOf(uint256)": {
        "details": "See {IERC721-ownerOf}."
      },
      "safeTransferFrom(address,address,uint256)": {
        "details": "See {IERC721-safeTransferFrom}."
      },
      "safeTransferFrom(address,address,uint256,bytes)": {
        "details": "See {IERC721-safeTransferFrom}."
      },
      "setApprovalForAll(address,bool)": {
        "details": "See {IERC721-setApprovalForAll}."
      },
      "supportsInterface(bytes4)": {
        "details": "See {IERC165-supportsInterface}."
      },
      "symbol()": {
        "details": "See {IERC721Metadata-symbol}."
      },
      "tokenURI(uint256)": {
        "details": "See {IERC721Metadata-tokenURI}."
      },
      "transferFrom(address,address,uint256)": {
        "details": "See {IERC721-transferFrom}."
      }
    },
    "version": 1
  },
  "userdoc": {
    "kind": "user",
    "methods": {},
    "version": 1
  },
  "storageLayout": {
    "storage": [
      {
        "astId": 674,
        "contract": "contracts/CryptoAnts.sol:CryptoAnts",
        "label": "_name",
        "offset": 0,
        "slot": "0",
        "type": "t_string_storage"
      },
      {
        "astId": 676,
        "contract": "contracts/CryptoAnts.sol:CryptoAnts",
        "label": "_symbol",
        "offset": 0,
        "slot": "1",
        "type": "t_string_storage"
      },
      {
        "astId": 680,
        "contract": "contracts/CryptoAnts.sol:CryptoAnts",
        "label": "_owners",
        "offset": 0,
        "slot": "2",
        "type": "t_mapping(t_uint256,t_address)"
      },
      {
        "astId": 684,
        "contract": "contracts/CryptoAnts.sol:CryptoAnts",
        "label": "_balances",
        "offset": 0,
        "slot": "3",
        "type": "t_mapping(t_address,t_uint256)"
      },
      {
        "astId": 688,
        "contract": "contracts/CryptoAnts.sol:CryptoAnts",
        "label": "_tokenApprovals",
        "offset": 0,
        "slot": "4",
        "type": "t_mapping(t_uint256,t_address)"
      },
      {
        "astId": 694,
        "contract": "contracts/CryptoAnts.sol:CryptoAnts",
        "label": "_operatorApprovals",
        "offset": 0,
        "slot": "5",
        "type": "t_mapping(t_address,t_mapping(t_address,t_bool))"
      },
      {
        "astId": 2236,
        "contract": "contracts/CryptoAnts.sol:CryptoAnts",
        "label": "locked",
        "offset": 0,
        "slot": "6",
        "type": "t_bool"
      },
      {
        "astId": 2240,
        "contract": "contracts/CryptoAnts.sol:CryptoAnts",
        "label": "antToOwner",
        "offset": 0,
        "slot": "7",
        "type": "t_mapping(t_uint256,t_address)"
      },
      {
        "astId": 2246,
        "contract": "contracts/CryptoAnts.sol:CryptoAnts",
        "label": "eggPrice",
        "offset": 0,
        "slot": "8",
        "type": "t_uint256"
      },
      {
        "astId": 2249,
        "contract": "contracts/CryptoAnts.sol:CryptoAnts",
        "label": "allAntsIds",
        "offset": 0,
        "slot": "9",
        "type": "t_array(t_uint256)dyn_storage"
      },
      {
        "astId": 2253,
        "contract": "contracts/CryptoAnts.sol:CryptoAnts",
        "label": "notLocked",
        "offset": 0,
        "slot": "10",
        "type": "t_bool"
      },
      {
        "astId": 2256,
        "contract": "contracts/CryptoAnts.sol:CryptoAnts",
        "label": "antsCreated",
        "offset": 0,
        "slot": "11",
        "type": "t_uint256"
      }
    ],
    "types": {
      "t_address": {
        "encoding": "inplace",
        "label": "address",
        "numberOfBytes": "20"
      },
      "t_array(t_uint256)dyn_storage": {
        "base": "t_uint256",
        "encoding": "dynamic_array",
        "label": "uint256[]",
        "numberOfBytes": "32"
      },
      "t_bool": {
        "encoding": "inplace",
        "label": "bool",
        "numberOfBytes": "1"
      },
      "t_mapping(t_address,t_bool)": {
        "encoding": "mapping",
        "key": "t_address",
        "label": "mapping(address => bool)",
        "numberOfBytes": "32",
        "value": "t_bool"
      },
      "t_mapping(t_address,t_mapping(t_address,t_bool))": {
        "encoding": "mapping",
        "key": "t_address",
        "label": "mapping(address => mapping(address => bool))",
        "numberOfBytes": "32",
        "value": "t_mapping(t_address,t_bool)"
      },
      "t_mapping(t_address,t_uint256)": {
        "encoding": "mapping",
        "key": "t_address",
        "label": "mapping(address => uint256)",
        "numberOfBytes": "32",
        "value": "t_uint256"
      },
      "t_mapping(t_uint256,t_address)": {
        "encoding": "mapping",
        "key": "t_uint256",
        "label": "mapping(uint256 => address)",
        "numberOfBytes": "32",
        "value": "t_address"
      },
      "t_string_storage": {
        "encoding": "bytes",
        "label": "string",
        "numberOfBytes": "32"
      },
      "t_uint256": {
        "encoding": "inplace",
        "label": "uint256",
        "numberOfBytes": "32"
      }
    }
  }
}