{
  "address": "0x148ea85c153b97Ae6AAAcbE6b729d8Ba65434bcc",
  "abi": [
    {
      "inputs": [
        {
          "internalType": "address",
          "name": "_eggs",
          "type": "address"
        }
      ],
      "stateMutability": "nonpayable",
      "type": "constructor"
    },
    {
      "inputs": [],
      "name": "AlreadyExists",
      "type": "error"
    },
    {
      "inputs": [],
      "name": "NoEggs",
      "type": "error"
    },
    {
      "inputs": [],
      "name": "NoZeroAddress",
      "type": "error"
    },
    {
      "inputs": [],
      "name": "WrongEtherSent",
      "type": "error"
    },
    {
      "anonymous": false,
      "inputs": [],
      "name": "AntCreated",
      "type": "event"
    },
    {
      "anonymous": false,
      "inputs": [],
      "name": "AntSold",
      "type": "event"
    },
    {
      "anonymous": false,
      "inputs": [
        {
          "indexed": true,
          "internalType": "address",
          "name": "owner",
          "type": "address"
        },
        {
          "indexed": true,
          "internalType": "address",
          "name": "approved",
          "type": "address"
        },
        {
          "indexed": true,
          "internalType": "uint256",
          "name": "tokenId",
          "type": "uint256"
        }
      ],
      "name": "Approval",
      "type": "event"
    },
    {
      "anonymous": false,
      "inputs": [
        {
          "indexed": true,
          "internalType": "address",
          "name": "owner",
          "type": "address"
        },
        {
          "indexed": true,
          "internalType": "address",
          "name": "operator",
          "type": "address"
        },
        {
          "indexed": false,
          "internalType": "bool",
          "name": "approved",
          "type": "bool"
        }
      ],
      "name": "ApprovalForAll",
      "type": "event"
    },
    {
      "anonymous": false,
      "inputs": [
        {
          "indexed": false,
          "internalType": "address",
          "name": "",
          "type": "address"
        },
        {
          "indexed": false,
          "internalType": "uint256",
          "name": "",
          "type": "uint256"
        }
      ],
      "name": "EggsBought",
      "type": "event"
    },
    {
      "anonymous": false,
      "inputs": [
        {
          "indexed": true,
          "internalType": "address",
          "name": "from",
          "type": "address"
        },
        {
          "indexed": true,
          "internalType": "address",
          "name": "to",
          "type": "address"
        },
        {
          "indexed": true,
          "internalType": "uint256",
          "name": "tokenId",
          "type": "uint256"
        }
      ],
      "name": "Transfer",
      "type": "event"
    },
    {
      "inputs": [
        {
          "internalType": "uint256",
          "name": "",
          "type": "uint256"
        }
      ],
      "name": "allAntsIds",
      "outputs": [
        {
          "internalType": "uint256",
          "name": "",
          "type": "uint256"
        }
      ],
      "stateMutability": "view",
      "type": "function"
    },
    {
      "inputs": [],
      "name": "antPrice",
      "outputs": [
        {
          "internalType": "uint256",
          "name": "",
          "type": "uint256"
        }
      ],
      "stateMutability": "view",
      "type": "function"
    },
    {
      "inputs": [
        {
          "internalType": "uint256",
          "name": "",
          "type": "uint256"
        }
      ],
      "name": "antToOwner",
      "outputs": [
        {
          "internalType": "address",
          "name": "",
          "type": "address"
        }
      ],
      "stateMutability": "view",
      "type": "function"
    },
    {
      "inputs": [],
      "name": "antsCreated",
      "outputs": [
        {
          "internalType": "uint256",
          "name": "",
          "type": "uint256"
        }
      ],
      "stateMutability": "view",
      "type": "function"
    },
    {
      "inputs": [
        {
          "internalType": "address",
          "name": "to",
          "type": "address"
        },
        {
          "internalType": "uint256",
          "name": "tokenId",
          "type": "uint256"
        }
      ],
      "name": "approve",
      "outputs": [],
      "stateMutability": "nonpayable",
      "type": "function"
    },
    {
      "inputs": [
        {
          "internalType": "address",
          "name": "owner",
          "type": "address"
        }
      ],
      "name": "balanceOf",
      "outputs": [
        {
          "internalType": "uint256",
          "name": "",
          "type": "uint256"
        }
      ],
      "stateMutability": "view",
      "type": "function"
    },
    {
      "inputs": [
        {
          "internalType": "uint256",
          "name": "_amount",
          "type": "uint256"
        }
      ],
      "name": "buyEggs",
      "outputs": [],
      "stateMutability": "payable",
      "type": "function"
    },
    {
      "inputs": [
        {
          "internalType": "uint256",
          "name": "newPrice",
          "type": "uint256"
        }
      ],
      "name": "changeEggPrice",
      "outputs": [],
      "stateMutability": "nonpayable",
      "type": "function"
    },
    {
      "inputs": [],
      "name": "createAnt",
      "outputs": [],
      "stateMutability": "nonpayable",
      "type": "function"
    },
    {
      "inputs": [
        {
          "internalType": "uint256",
          "name": "_antId",
          "type": "uint256"
        }
      ],
      "name": "createEgg",
      "outputs": [
        {
          "internalType": "bool",
          "name": "",
          "type": "bool"
        }
      ],
      "stateMutability": "nonpayable",
      "type": "function"
    },
    {
      "inputs": [],
      "name": "eggs",
      "outputs": [
        {
          "internalType": "contract IEgg",
          "name": "",
          "type": "address"
        }
      ],
      "stateMutability": "view",
      "type": "function"
    },
    {
      "inputs": [
        {
          "internalType": "uint256",
          "name": "_antId",
          "type": "uint256"
        }
      ],
      "name": "expiryTime",
      "outputs": [
        {
          "internalType": "uint256",
          "name": "",
          "type": "uint256"
        }
      ],
      "stateMutability": "view",
      "type": "function"
    },
    {
      "inputs": [],
      "name": "getAntsCreated",
      "outputs": [
        {
          "internalType": "uint256",
          "name": "",
          "type": "uint256"
        }
      ],
      "stateMutability": "view",
      "type": "function"
    },
    {
      "inputs": [
        {
          "internalType": "uint256",
          "name": "tokenId",
          "type": "uint256"
        }
      ],
      "name": "getApproved",
      "outputs": [
        {
          "internalType": "address",
          "name": "",
          "type": "address"
        }
      ],
      "stateMutability": "view",
      "type": "function"
    },
    {
      "inputs": [],
      "name": "getContractBalance",
      "outputs": [
        {
          "internalType": "uint256",
          "name": "",
          "type": "uint256"
        }
      ],
      "stateMutability": "view",
      "type": "function"
    },
    {
      "inputs": [
        {
          "internalType": "address",
          "name": "owner",
          "type": "address"
        },
        {
          "internalType": "address",
          "name": "operator",
          "type": "address"
        }
      ],
      "name": "isApprovedForAll",
      "outputs": [
        {
          "internalType": "bool",
          "name": "",
          "type": "bool"
        }
      ],
      "stateMutability": "view",
      "type": "function"
    },
    {
      "inputs": [],
      "name": "locked",
      "outputs": [
        {
          "internalType": "bool",
          "name": "",
          "type": "bool"
        }
      ],
      "stateMutability": "view",
      "type": "function"
    },
    {
      "inputs": [],
      "name": "name",
      "outputs": [
        {
          "internalType": "string",
          "name": "",
          "type": "string"
        }
      ],
      "stateMutability": "view",
      "type": "function"
    },
    {
      "inputs": [],
      "name": "notLocked",
      "outputs": [
        {
          "internalType": "bool",
          "name": "",
          "type": "bool"
        }
      ],
      "stateMutability": "view",
      "type": "function"
    },
    {
      "inputs": [
        {
          "internalType": "uint256",
          "name": "tokenId",
          "type": "uint256"
        }
      ],
      "name": "ownerOf",
      "outputs": [
        {
          "internalType": "address",
          "name": "",
          "type": "address"
        }
      ],
      "stateMutability": "view",
      "type": "function"
    },
    {
      "inputs": [
        {
          "internalType": "address",
          "name": "from",
          "type": "address"
        },
        {
          "internalType": "address",
          "name": "to",
          "type": "address"
        },
        {
          "internalType": "uint256",
          "name": "tokenId",
          "type": "uint256"
        }
      ],
      "name": "safeTransferFrom",
      "outputs": [],
      "stateMutability": "nonpayable",
      "type": "function"
    },
    {
      "inputs": [
        {
          "internalType": "address",
          "name": "from",
          "type": "address"
        },
        {
          "internalType": "address",
          "name": "to",
          "type": "address"
        },
        {
          "internalType": "uint256",
          "name": "tokenId",
          "type": "uint256"
        },
        {
          "internalType": "bytes",
          "name": "_data",
          "type": "bytes"
        }
      ],
      "name": "safeTransferFrom",
      "outputs": [],
      "stateMutability": "nonpayable",
      "type": "function"
    },
    {
      "inputs": [
        {
          "internalType": "uint256",
          "name": "_antId",
          "type": "uint256"
        }
      ],
      "name": "sellAnt",
      "outputs": [],
      "stateMutability": "nonpayable",
      "type": "function"
    },
    {
      "inputs": [
        {
          "internalType": "address",
          "name": "operator",
          "type": "address"
        },
        {
          "internalType": "bool",
          "name": "approved",
          "type": "bool"
        }
      ],
      "name": "setApprovalForAll",
      "outputs": [],
      "stateMutability": "nonpayable",
      "type": "function"
    },
    {
      "inputs": [
        {
          "internalType": "bytes4",
          "name": "interfaceId",
          "type": "bytes4"
        }
      ],
      "name": "supportsInterface",
      "outputs": [
        {
          "internalType": "bool",
          "name": "",
          "type": "bool"
        }
      ],
      "stateMutability": "view",
      "type": "function"
    },
    {
      "inputs": [],
      "name": "symbol",
      "outputs": [
        {
          "internalType": "string",
          "name": "",
          "type": "string"
        }
      ],
      "stateMutability": "view",
      "type": "function"
    },
    {
      "inputs": [
        {
          "internalType": "uint256",
          "name": "tokenId",
          "type": "uint256"
        }
      ],
      "name": "tokenURI",
      "outputs": [
        {
          "internalType": "string",
          "name": "",
          "type": "string"
        }
      ],
      "stateMutability": "view",
      "type": "function"
    },
    {
      "inputs": [
        {
          "internalType": "address",
          "name": "from",
          "type": "address"
        },
        {
          "internalType": "address",
          "name": "to",
          "type": "address"
        },
        {
          "internalType": "uint256",
          "name": "tokenId",
          "type": "uint256"
        }
      ],
      "name": "transferFrom",
      "outputs": [],
      "stateMutability": "nonpayable",
      "type": "function"
    }
  ],
  "transactionHash": "0xb4dfc3ce228fa09e83f434c09c7076ed82794c31fd45aa2205237e15b7a73d7d",
  "args": [
    "0xb04cB4ADA6Ab113c5A7D6506B64e817C61392efb"
  ],
  "solcInputHash": "6ad7201f397385d708f7e690b1756bc7",
  "bytecode": "0x60a06040526008805460ff19908116909155600a805490911690556000600b55660e35fa931a0000600c55610258600e553480156200003d57600080fd5b50604051620021c5380380620021c5833981016040819052620000609162000198565b604080518082018252600b81526a43727970746f20416e747360a81b602080830191825283518085019094526004845263414e545360e01b908401528151919291620000af91600091620000f2565b508051620000c5906001906020840190620000f2565b505060068054336001600160a01b03199091161790555060601b6001600160601b03191660805262000207565b8280546200010090620001ca565b90600052602060002090601f0160209004810192826200012457600085556200016f565b82601f106200013f57805160ff19168380011785556200016f565b828001600101855582156200016f579182015b828111156200016f57825182559160200191906001019062000152565b506200017d92915062000181565b5090565b5b808211156200017d576000815560010162000182565b600060208284031215620001ab57600080fd5b81516001600160a01b0381168114620001c357600080fd5b9392505050565b600181811c90821680620001df57607f821691505b602082108114156200020157634e487b7160e01b600052602260045260246000fd5b50919050565b60805160601c611f7c62000249600039600081816104ce0152818161084c01528181610ac501528181610b7101528181610d3001526112b30152611f7c6000f3fe6080604052600436106101b75760003560e01c80636f9fb98a116100ec578063be010c401161008a578063e1b1d0b211610064578063e1b1d0b21461049c578063e33f76cf146104bc578063e985e9c5146104f0578063f770031c1461053957600080fd5b8063be010c4014610442578063c87b56dd14610462578063cf3090121461048257600080fd5b8063a22cb465116100c6578063a22cb465146103cc578063a993efbc146103ec578063b011098614610402578063b88d4fde1461042257600080fd5b80636f9fb98a1461038457806370a082311461039757806395d89b41146103b757600080fd5b80633d87122911610159578063520f7c0e11610133578063520f7c0e1461030e5780635ebd7a181461032457806361dcb054146103445780636352211e1461036457600080fd5b80633d871229146102bc57806342842e0e146102db5780634fd53596146102fb57600080fd5b8063095ea7b311610195578063095ea7b31461024b57806317e356a11461026d57806323b872dd146102875780632e61a7bf146102a757600080fd5b806301ffc9a7146101bc57806306fdde03146101f1578063081812fc14610213575b600080fd5b3480156101c857600080fd5b506101dc6101d7366004611c22565b61056f565b60405190151581526020015b60405180910390f35b3480156101fd57600080fd5b506102066105c1565b6040516101e89190611d26565b34801561021f57600080fd5b5061023361022e366004611c5c565b610653565b6040516001600160a01b0390911681526020016101e8565b34801561025757600080fd5b5061026b610266366004611bf8565b6106ed565b005b34801561027957600080fd5b50600a546101dc9060ff1681565b34801561029357600080fd5b5061026b6102a2366004611aa4565b610803565b3480156102b357600080fd5b5061026b610834565b3480156102c857600080fd5b50600b545b6040519081526020016101e8565b3480156102e757600080fd5b5061026b6102f6366004611aa4565b610a16565b61026b610309366004611c5c565b610a31565b34801561031a57600080fd5b506102cd600c5481565b34801561033057600080fd5b506101dc61033f366004611c5c565b610c2c565b34801561035057600080fd5b5061026b61035f366004611c5c565b610dd6565b34801561037057600080fd5b5061023361037f366004611c5c565b610ece565b34801561039057600080fd5b50476102cd565b3480156103a357600080fd5b506102cd6103b2366004611a56565b610f45565b3480156103c357600080fd5b50610206610fcc565b3480156103d857600080fd5b5061026b6103e7366004611bbc565b610fdb565b3480156103f857600080fd5b506102cd600b5481565b34801561040e57600080fd5b506102cd61041d366004611c5c565b6110a0565b34801561042e57600080fd5b5061026b61043d366004611ae0565b6110c1565b34801561044e57600080fd5b506102cd61045d366004611c5c565b6110f9565b34801561046e57600080fd5b5061020661047d366004611c5c565b61112a565b34801561048e57600080fd5b506008546101dc9060ff1681565b3480156104a857600080fd5b5061026b6104b7366004611c5c565b611212565b3480156104c857600080fd5b506102337f000000000000000000000000000000000000000000000000000000000000000081565b3480156104fc57600080fd5b506101dc61050b366004611a71565b6001600160a01b03918216600090815260056020908152604080832093909416825291909152205460ff1690565b34801561054557600080fd5b50610233610554366004611c5c565b6007602052600090815260409020546001600160a01b031681565b60006001600160e01b031982166380ac58cd60e01b14806105a057506001600160e01b03198216635b5e139f60e01b145b806105bb57506301ffc9a760e01b6001600160e01b03198316145b92915050565b6060600080546105d090611e71565b80601f01602080910402602001604051908101604052809291908181526020018280546105fc90611e71565b80156106495780601f1061061e57610100808354040283529160200191610649565b820191906000526020600020905b81548152906001019060200180831161062c57829003601f168201915b5050505050905090565b6000818152600260205260408120546001600160a01b03166106d15760405162461bcd60e51b815260206004820152602c60248201527f4552433732313a20617070726f76656420717565727920666f72206e6f6e657860448201526b34b9ba32b73a103a37b5b2b760a11b60648201526084015b60405180910390fd5b506000908152600460205260409020546001600160a01b031690565b60006106f882610ece565b9050806001600160a01b0316836001600160a01b031614156107665760405162461bcd60e51b815260206004820152602160248201527f4552433732313a20617070726f76616c20746f2063757272656e74206f776e656044820152603960f91b60648201526084016106c8565b336001600160a01b03821614806107825750610782813361050b565b6107f45760405162461bcd60e51b815260206004820152603860248201527f4552433732313a20617070726f76652063616c6c6572206973206e6f74206f7760448201527f6e6572206e6f7220617070726f76656420666f7220616c6c000000000000000060648201526084016106c8565b6107fe838361131a565b505050565b61080d3382611388565b6108295760405162461bcd60e51b81526004016106c890611db1565b6107fe83838361147f565b6040516370a0823160e01b81523360048201526001907f00000000000000000000000000000000000000000000000000000000000000006001600160a01b0316906370a082319060240160206040518083038186803b15801561089657600080fd5b505afa1580156108aa573d6000803e3d6000fd5b505050506040513d601f19601f820116820180604052508101906108ce9190611c75565b10156108ed57604051636c308a2f60e01b815260040160405180910390fd5b6000600b600081546108fe90611ea6565b9182905550905060005b60095481101561096257816009828154811061092657610926611f01565b906000526020600020015414156109505760405163119b4fd360e11b815260040160405180910390fd5b8061095a81611ea6565b915050610908565b5061096d338261161f565b60008181526007602052604080822080546001600160a01b031916331790556009805460018181019092557f6e1540171b6c0c960b71a7020d9f60077f6af931a8bbf590da0223dacf75c7af01849055600d805491820181558352427fd7b6990105719101dabeb77144f2a3385c8033acd3af97e9423a695e81ad1eb590910155517fa38da27c8afea1e833812265c5f9c3f1def6eaf2e7d9b42c1b4d9d8ea69b0b759190a150565b6107fe838383604051806020016040528060008152506110c1565b60085460ff1615610a9b5760405162461bcd60e51b815260206004820152602e60248201527f536f7272792c20796f7520617265206e6f7420616c6c6f77656420746f20726560448201526d2d656e7465722068657265203a2960901b60648201526084016106c8565b6008805460ff191660011790556040805163182f1aa960e11b815290516000916001600160a01b037f0000000000000000000000000000000000000000000000000000000000000000169163305e355291600480820192602092909190829003018186803b158015610b0c57600080fd5b505afa158015610b20573d6000803e3d6000fd5b505050506040513d601f19601f82011682018060405250810190610b449190611c75565b90506000610b528234611e1a565b6040516340c10f1960e01b8152336004820152602481018590529091507f00000000000000000000000000000000000000000000000000000000000000006001600160a01b0316906340c10f1990604401600060405180830381600087803b158015610bbd57600080fd5b505af1158015610bd1573d6000803e3d6000fd5b505060408051338152602081018590527fecedcda9002dd5028204a70dddaa2155459b6dff3c3e20543450a189e736dc49935001905060405180910390a15050600a546008805460ff191660ff909216151591909117905550565b60008142600d610c3d600184611e2e565b81548110610c4d57610c4d611f01565b906000526020600020015410610ca55760405162461bcd60e51b815260206004820152601860248201527f596f75206d7573742077616974203130206d696e75746573000000000000000060448201526064016106c8565b600e54610cb29042611e02565b600d610cbf600184611e2e565b81548110610ccf57610ccf611f01565b6000918252602080832090910192909255848152600790915260409020546001600160a01b03163314610d145760405162461bcd60e51b81526004016106c890611d39565b6040516340c10f1960e01b8152336004820152600160248201527f00000000000000000000000000000000000000000000000000000000000000006001600160a01b0316906340c10f1990604401600060405180830381600087803b158015610d7c57600080fd5b505af1158015610d90573d6000803e3d6000fd5b50505050600e5442610da29190611e02565b600d610daf600186611e2e565b81548110610dbf57610dbf611f01565b600091825260209091200155600191505b50919050565b6000818152600760205260409020546001600160a01b03163314610e0c5760405162461bcd60e51b81526004016106c890611d39565b600c5460405160009133918381818185875af1925050503d8060008114610e4f576040519150601f19603f3d011682016040523d82523d6000602084013e610e54565b606091505b5050905080610ea55760405162461bcd60e51b815260206004820152601960248201527f57686f6f70732c20746869732063616c6c206661696c6564210000000000000060448201526064016106c8565b600082815260076020526040902080546001600160a01b0319169055610eca82611761565b5050565b6000818152600260205260408120546001600160a01b0316806105bb5760405162461bcd60e51b815260206004820152602960248201527f4552433732313a206f776e657220717565727920666f72206e6f6e657869737460448201526832b73a103a37b5b2b760b91b60648201526084016106c8565b60006001600160a01b038216610fb05760405162461bcd60e51b815260206004820152602a60248201527f4552433732313a2062616c616e636520717565727920666f7220746865207a65604482015269726f206164647265737360b01b60648201526084016106c8565b506001600160a01b031660009081526003602052604090205490565b6060600180546105d090611e71565b6001600160a01b0382163314156110345760405162461bcd60e51b815260206004820152601960248201527f4552433732313a20617070726f766520746f2063616c6c65720000000000000060448201526064016106c8565b3360008181526005602090815260408083206001600160a01b03871680855290835292819020805460ff191686151590811790915590519081529192917f17307eab39ab6107e8899845ad3d59bd9653f200f220920489ca2b5937696c31910160405180910390a35050565b600981815481106110b057600080fd5b600091825260209091200154905081565b6110cb3383611388565b6110e75760405162461bcd60e51b81526004016106c890611db1565b6110f3848484846117fc565b50505050565b6000600d611108600184611e2e565b8154811061111857611118611f01565b90600052602060002001549050919050565b6000818152600260205260409020546060906001600160a01b03166111a95760405162461bcd60e51b815260206004820152602f60248201527f4552433732314d657461646174613a2055524920717565727920666f72206e6f60448201526e3732bc34b9ba32b73a103a37b5b2b760891b60648201526084016106c8565b60006111c060408051602081019091526000815290565b905060008151116111e0576040518060200160405280600081525061120b565b806111ea8461182f565b6040516020016111fb929190611cba565b6040516020818303038152906040525b9392505050565b6006546001600160a01b0316331461123c5760405162461bcd60e51b81526004016106c890611d39565b600c54811161129d5760405162461bcd60e51b815260206004820152602760248201527f456767207072696365206d75737420626520686967686572207468616e20416e6044820152667420707269636560c81b60648201526084016106c8565b6040516370f8037560e01b8152600481018290527f00000000000000000000000000000000000000000000000000000000000000006001600160a01b0316906370f8037590602401600060405180830381600087803b1580156112ff57600080fd5b505af1158015611313573d6000803e3d6000fd5b5050505050565b600081815260046020526040902080546001600160a01b0319166001600160a01b038416908117909155819061134f82610ece565b6001600160a01b03167f8c5be1e5ebec7d5bd14f71427d1e84f3dd0314c0f7b2291e5b200ac8c7c3b92560405160405180910390a45050565b6000818152600260205260408120546001600160a01b03166114015760405162461bcd60e51b815260206004820152602c60248201527f4552433732313a206f70657261746f7220717565727920666f72206e6f6e657860448201526b34b9ba32b73a103a37b5b2b760a11b60648201526084016106c8565b600061140c83610ece565b9050806001600160a01b0316846001600160a01b031614806114475750836001600160a01b031661143c84610653565b6001600160a01b0316145b8061147757506001600160a01b0380821660009081526005602090815260408083209388168352929052205460ff165b949350505050565b826001600160a01b031661149282610ece565b6001600160a01b0316146114fa5760405162461bcd60e51b815260206004820152602960248201527f4552433732313a207472616e73666572206f6620746f6b656e2074686174206960448201526839903737ba1037bbb760b91b60648201526084016106c8565b6001600160a01b03821661155c5760405162461bcd60e51b8152602060048201526024808201527f4552433732313a207472616e7366657220746f20746865207a65726f206164646044820152637265737360e01b60648201526084016106c8565b61156760008261131a565b6001600160a01b0383166000908152600360205260408120805460019290611590908490611e2e565b90915550506001600160a01b03821660009081526003602052604081208054600192906115be908490611e02565b909155505060008181526002602052604080822080546001600160a01b0319166001600160a01b0386811691821790925591518493918716917fddf252ad1be2c89b69c2b068fc378daa952ba7f163c4a11628f55a4df523b3ef91a4505050565b6001600160a01b0382166116755760405162461bcd60e51b815260206004820181905260248201527f4552433732313a206d696e7420746f20746865207a65726f206164647265737360448201526064016106c8565b6000818152600260205260409020546001600160a01b0316156116da5760405162461bcd60e51b815260206004820152601c60248201527f4552433732313a20746f6b656e20616c7265616479206d696e7465640000000060448201526064016106c8565b6001600160a01b0382166000908152600360205260408120805460019290611703908490611e02565b909155505060008181526002602052604080822080546001600160a01b0319166001600160a01b03861690811790915590518392907fddf252ad1be2c89b69c2b068fc378daa952ba7f163c4a11628f55a4df523b3ef908290a45050565b600061176c82610ece565b905061177960008361131a565b6001600160a01b03811660009081526003602052604081208054600192906117a2908490611e2e565b909155505060008281526002602052604080822080546001600160a01b0319169055518391906001600160a01b038416907fddf252ad1be2c89b69c2b068fc378daa952ba7f163c4a11628f55a4df523b3ef908390a45050565b61180784848461147f565b6118138484848461192d565b6110f35760405162461bcd60e51b81526004016106c890611d5f565b6060816118535750506040805180820190915260018152600360fc1b602082015290565b8160005b811561187d578061186781611ea6565b91506118769050600a83611e1a565b9150611857565b60008167ffffffffffffffff81111561189857611898611f17565b6040519080825280601f01601f1916602001820160405280156118c2576020820181803683370190505b5090505b8415611477576118d7600183611e2e565b91506118e4600a86611ec1565b6118ef906030611e02565b60f81b81838151811061190457611904611f01565b60200101906001600160f81b031916908160001a905350611926600a86611e1a565b94506118c6565b60006001600160a01b0384163b15611a2f57604051630a85bd0160e11b81526001600160a01b0385169063150b7a0290611971903390899088908890600401611ce9565b602060405180830381600087803b15801561198b57600080fd5b505af19250505080156119bb575060408051601f3d908101601f191682019092526119b891810190611c3f565b60015b611a15573d8080156119e9576040519150601f19603f3d011682016040523d82523d6000602084013e6119ee565b606091505b508051611a0d5760405162461bcd60e51b81526004016106c890611d5f565b805181602001fd5b6001600160e01b031916630a85bd0160e11b149050611477565b506001949350505050565b80356001600160a01b0381168114611a5157600080fd5b919050565b600060208284031215611a6857600080fd5b61120b82611a3a565b60008060408385031215611a8457600080fd5b611a8d83611a3a565b9150611a9b60208401611a3a565b90509250929050565b600080600060608486031215611ab957600080fd5b611ac284611a3a565b9250611ad060208501611a3a565b9150604084013590509250925092565b60008060008060808587031215611af657600080fd5b611aff85611a3a565b9350611b0d60208601611a3a565b925060408501359150606085013567ffffffffffffffff80821115611b3157600080fd5b818701915087601f830112611b4557600080fd5b813581811115611b5757611b57611f17565b604051601f8201601f19908116603f01168101908382118183101715611b7f57611b7f611f17565b816040528281528a6020848701011115611b9857600080fd5b82602086016020830137600060208483010152809550505050505092959194509250565b60008060408385031215611bcf57600080fd5b611bd883611a3a565b915060208301358015158114611bed57600080fd5b809150509250929050565b60008060408385031215611c0b57600080fd5b611c1483611a3a565b946020939093013593505050565b600060208284031215611c3457600080fd5b813561120b81611f2d565b600060208284031215611c5157600080fd5b815161120b81611f2d565b600060208284031215611c6e57600080fd5b5035919050565b600060208284031215611c8757600080fd5b5051919050565b60008151808452611ca6816020860160208601611e45565b601f01601f19169290920160200192915050565b60008351611ccc818460208801611e45565b835190830190611ce0818360208801611e45565b01949350505050565b6001600160a01b0385811682528416602082015260408101839052608060608201819052600090611d1c90830184611c8e565b9695505050505050565b60208152600061120b6020830184611c8e565b6020808252600c908201526b155b985d5d1a1bdc9a5e995960a21b604082015260600190565b60208082526032908201527f4552433732313a207472616e7366657220746f206e6f6e20455243373231526560408201527131b2b4bb32b91034b6b83632b6b2b73a32b960711b606082015260800190565b60208082526031908201527f4552433732313a207472616e736665722063616c6c6572206973206e6f74206f6040820152701ddb995c881b9bdc88185c1c1c9bdd9959607a1b606082015260800190565b60008219821115611e1557611e15611ed5565b500190565b600082611e2957611e29611eeb565b500490565b600082821015611e4057611e40611ed5565b500390565b60005b83811015611e60578181015183820152602001611e48565b838111156110f35750506000910152565b600181811c90821680611e8557607f821691505b60208210811415610dd057634e487b7160e01b600052602260045260246000fd5b6000600019821415611eba57611eba611ed5565b5060010190565b600082611ed057611ed0611eeb565b500690565b634e487b7160e01b600052601160045260246000fd5b634e487b7160e01b600052601260045260246000fd5b634e487b7160e01b600052603260045260246000fd5b634e487b7160e01b600052604160045260246000fd5b6001600160e01b031981168114611f4357600080fd5b5056fea2646970667358221220f5b21224e477c9003836eb455a6529a3271b8b2c749c98af781c7e96f7832d0864736f6c63430008070033",
  "devdoc": {
    "kind": "dev",
    "methods": {
      "approve(address,uint256)": {
        "details": "See {IERC721-approve}."
      },
      "balanceOf(address)": {
        "details": "See {IERC721-balanceOf}."
      },
      "getApproved(uint256)": {
        "details": "See {IERC721-getApproved}."
      },
      "isApprovedForAll(address,address)": {
        "details": "See {IERC721-isApprovedForAll}."
      },
      "name()": {
        "details": "See {IERC721Metadata-name}."
      },
      "ownerOf(uint256)": {
        "details": "See {IERC721-ownerOf}."
      },
      "safeTransferFrom(address,address,uint256)": {
        "details": "See {IERC721-safeTransferFrom}."
      },
      "safeTransferFrom(address,address,uint256,bytes)": {
        "details": "See {IERC721-safeTransferFrom}."
      },
      "setApprovalForAll(address,bool)": {
        "details": "See {IERC721-setApprovalForAll}."
      },
      "supportsInterface(bytes4)": {
        "details": "See {IERC165-supportsInterface}."
      },
      "symbol()": {
        "details": "See {IERC721Metadata-symbol}."
      },
      "tokenURI(uint256)": {
        "details": "See {IERC721Metadata-tokenURI}."
      },
      "transferFrom(address,address,uint256)": {
        "details": "See {IERC721-transferFrom}."
      }
    },
    "version": 1
  },
  "userdoc": {
    "kind": "user",
    "methods": {},
    "version": 1
  },
  "storageLayout": {
    "storage": [
      {
        "astId": 674,
        "contract": "contracts/CryptoAnts.sol:CryptoAnts",
        "label": "_name",
        "offset": 0,
        "slot": "0",
        "type": "t_string_storage"
      },
      {
        "astId": 676,
        "contract": "contracts/CryptoAnts.sol:CryptoAnts",
        "label": "_symbol",
        "offset": 0,
        "slot": "1",
        "type": "t_string_storage"
      },
      {
        "astId": 680,
        "contract": "contracts/CryptoAnts.sol:CryptoAnts",
        "label": "_owners",
        "offset": 0,
        "slot": "2",
        "type": "t_mapping(t_uint256,t_address)"
      },
      {
        "astId": 684,
        "contract": "contracts/CryptoAnts.sol:CryptoAnts",
        "label": "_balances",
        "offset": 0,
        "slot": "3",
        "type": "t_mapping(t_address,t_uint256)"
      },
      {
        "astId": 688,
        "contract": "contracts/CryptoAnts.sol:CryptoAnts",
        "label": "_tokenApprovals",
        "offset": 0,
        "slot": "4",
        "type": "t_mapping(t_uint256,t_address)"
      },
      {
        "astId": 694,
        "contract": "contracts/CryptoAnts.sol:CryptoAnts",
        "label": "_operatorApprovals",
        "offset": 0,
        "slot": "5",
        "type": "t_mapping(t_address,t_mapping(t_address,t_bool))"
      },
      {
        "astId": 2252,
        "contract": "contracts/CryptoAnts.sol:CryptoAnts",
        "label": "_owner",
        "offset": 0,
        "slot": "6",
        "type": "t_address"
      },
      {
        "astId": 2256,
        "contract": "contracts/CryptoAnts.sol:CryptoAnts",
        "label": "antToOwner",
        "offset": 0,
        "slot": "7",
        "type": "t_mapping(t_uint256,t_address)"
      },
      {
        "astId": 2259,
        "contract": "contracts/CryptoAnts.sol:CryptoAnts",
        "label": "locked",
        "offset": 0,
        "slot": "8",
        "type": "t_bool"
      },
      {
        "astId": 2265,
        "contract": "contracts/CryptoAnts.sol:CryptoAnts",
        "label": "allAntsIds",
        "offset": 0,
        "slot": "9",
        "type": "t_array(t_uint256)dyn_storage"
      },
      {
        "astId": 2269,
        "contract": "contracts/CryptoAnts.sol:CryptoAnts",
        "label": "notLocked",
        "offset": 0,
        "slot": "10",
        "type": "t_bool"
      },
      {
        "astId": 2272,
        "contract": "contracts/CryptoAnts.sol:CryptoAnts",
        "label": "antsCreated",
        "offset": 0,
        "slot": "11",
        "type": "t_uint256"
      },
      {
        "astId": 2275,
        "contract": "contracts/CryptoAnts.sol:CryptoAnts",
        "label": "antPrice",
        "offset": 0,
        "slot": "12",
        "type": "t_uint256"
      },
      {
        "astId": 2278,
        "contract": "contracts/CryptoAnts.sol:CryptoAnts",
        "label": "_expiryOf",
        "offset": 0,
        "slot": "13",
        "type": "t_array(t_uint256)dyn_storage"
      },
      {
        "astId": 2281,
        "contract": "contracts/CryptoAnts.sol:CryptoAnts",
        "label": "_waitTime",
        "offset": 0,
        "slot": "14",
        "type": "t_uint256"
      }
    ],
    "types": {
      "t_address": {
        "encoding": "inplace",
        "label": "address",
        "numberOfBytes": "20"
      },
      "t_array(t_uint256)dyn_storage": {
        "base": "t_uint256",
        "encoding": "dynamic_array",
        "label": "uint256[]",
        "numberOfBytes": "32"
      },
      "t_bool": {
        "encoding": "inplace",
        "label": "bool",
        "numberOfBytes": "1"
      },
      "t_mapping(t_address,t_bool)": {
        "encoding": "mapping",
        "key": "t_address",
        "label": "mapping(address => bool)",
        "numberOfBytes": "32",
        "value": "t_bool"
      },
      "t_mapping(t_address,t_mapping(t_address,t_bool))": {
        "encoding": "mapping",
        "key": "t_address",
        "label": "mapping(address => mapping(address => bool))",
        "numberOfBytes": "32",
        "value": "t_mapping(t_address,t_bool)"
      },
      "t_mapping(t_address,t_uint256)": {
        "encoding": "mapping",
        "key": "t_address",
        "label": "mapping(address => uint256)",
        "numberOfBytes": "32",
        "value": "t_uint256"
      },
      "t_mapping(t_uint256,t_address)": {
        "encoding": "mapping",
        "key": "t_uint256",
        "label": "mapping(uint256 => address)",
        "numberOfBytes": "32",
        "value": "t_address"
      },
      "t_string_storage": {
        "encoding": "bytes",
        "label": "string",
        "numberOfBytes": "32"
      },
      "t_uint256": {
        "encoding": "inplace",
        "label": "uint256",
        "numberOfBytes": "32"
      }
    }
  }
}